:020000040800F2
:1000000000000220695D0008115D0008195D00080C
:10001000395D00083F5D0008455D000800000000F4
:100020000000000000000000000000004B5D000820
:10003000595D0008000000009D02000841F2000820
:10004000B15D0008B15D0008B15D0008B15D000858
:10005000B15D0008B15D0008B15D0008B15D000848
:10006000B15D0008B15D0008B15D000851480008AD
:1000700081480008B1480008DD4800080D49000823
:100080003D4900086D490008B15D0008B15D0008F8
:10009000AD3F0008B15D0008B15D0008B15D00082A
:1000A000B15D0008B15D0008B15D0008B15D0008F8
:1000B00055580008B15D0008B15D0008B15D000849
:1000C000B15D0008B15D0008B15D0008B15D0008D8
:1000D000B15D0008B15D0008B15D0008B15D0008C8
:1000E000B15D0008B15D0008B15D0008B15D0008B8
:1000F000B15D0008B15D0008B15D00089D490008D0
:10010000B15D0008B15D0008B15D0008B15D000897
:10011000B15D0008B15D0008B15D0008B15D000887
:10012000B15D0008B15D0008B15D0008B15D000877
:10013000B15D00080000000000000000B15D000893
:10014000B15D0008B15D0008B15D0008B15D000857
:10015000B15D0008B15D0008B15D0008B15D000847
:10016000B15D0008B15D0008B15D0008B15D000837
:10017000B15D0008B15D0008B15D0008000000003D
:1001800000000000B15D0008000000000000000059
:10019000B15D00080000000000000000B15D000833
:1001A000000000000000000000000000B15D000839
:1001B000B15D0008B15D0008B15D0008B15D0008E7
:0401C000B15D000825
:1001C80010B5054C237833B9044B13B10448AFF389
:1001D80000800123237010BD88000020000000006B
:1001E800B812010808B5034B1BB103490348AFF324
:1001F800008008BD000000008C000020B812010833
:10020800F0B400EB4003DFF8880000EBC30000F116
:1002180018063069F7687568874232D3B368DC1B03
:10022800631E934214D37D19D01900BF11F8013B06
:1002380005F8013B013A05D011F8013B05F8013BEF
:10024800013AF3D1BFF35F8FF0600120F0BC704733
:10025800C018904219D37819121B11F8013B00F805
:10026800013B013CF9D1141C05D011F8013B05F8FC
:10027800013B013AF9D1BFF35F8FF4600120F0BC74
:100288007047C01B01389042CDD20020F0BC7047A7
:10029800A40000204E48816859B91EF0100F1CBFF9
:1002A80008B015E04B490A6822F001020A601AB04A
:1002B8000EE0EFF309821EF0100F03D1A2F1400205
:1002C80082EC108AA2F128024A60036882E8F84F9B
:1002D800414988478168C1B14A6892E8F84F03608C
:1002E80002F128021EF0100F01D1B2EC108A82F33D
:1002F800098890693949884202DB394A904203DB10
:100308004FF0000181F31188704736483649096873
:10031800401A80F308884FF08071C16133498161C8
:100328007FF0060E704701BC31488047204602BC6A
:1003380088475DF804EB2F490847002809D0EFF3F8
:1003480014816A467346A0E8FE0F80EC108A2A489A
:1003580080472A4824490968401A20F0070080F39A
:1003680008884FF000011A48417081F3118862B67D
:1003780023494FF080520A60BFF34F8FBFF36F8F4E
:10038800FEE7B0E8FE0F81F31488BFF36F8F954640
:100398009E4690EC108A704703680CB44FF0000139
:1003A800417081F3118816494FF080520A60BFF3FB
:1003B8004F8FBFF36F8F0CBC0360704710494FF02D
:1003C80080520A60BFF34F8FBFF36F8F70470000F2
:1003D800A851002034EF00E0DD020108A103000865
:1003E800C203000848470120F0410108F9F300085A
:1003F800AD020108C9020108750201086847012019
:1004080004ED00E070B54FF0FF0C4CF4E06C1CEA12
:1004180011541DBF1CEA135594EA0C0F95EA0C0FF2
:1004280000F0DEF82C4481EA030621EA4C5123EA65
:100438004C5350EA013518BF52EA033541F4801194
:1004480043F4801338D0A0FB02CE4FF00005E1FB47
:1004580002E506F00042E0FB03E54FF00006E1FB91
:1004680003569CF0000F18BF4EF0010EA4F1FF04D4
:10047800B6F5007F64F5407404D25FEA4E0E6D4114
:1004880046EB060642EAC62141EA55514FEAC52025
:1004980040EA5E504FEACE2EB4F1FD0C88BFBCF5A1
:1004A800E06F1ED8BEF1004F08BF5FEA500E50F152
:1004B800000041EB045170BD06F0004646EA010118
:1004C80040EA020081EA0301B4EB5C04C2BFD4EB4A
:1004D8000C0541EA045170BD41F480114FF0000E43
:1004E800013C00F3AB8014F1360FDEBF002001F0B1
:1004F800004170BDC4F10004203C35DA0C341BDC2B
:1005080004F11404C4F1200500FA05F320FA04F0FC
:1005180001FA05F240EA020001F0004221F0004130
:1005280010EBD37021FA04F642EB06015EEA430EA3
:1005380008BF20EAD37070BDC4F10C04C4F12005D3
:1005480000FA04F320FA05F001FA04F240EA020086
:1005580001F0004110EBD37041F100015EEA430E57
:1005680008BF20EAD37070BDC4F1200500FA05F277
:100578004EEA020E20FA04F301FA05F243EA0203F6
:1005880021FA04F001F0004121FA04F220EA020005
:1005980000EBD3705EEA430E08BF20EAD37070BD4B
:1005A80094F0000F0FD101F00046400041EB01012B
:1005B80011F4801F08BF013CF7D041EA060195F00D
:1005C800000F18BF704703F00046520043EB0303C7
:1005D80013F4801F08BF013DF7D043EA06037047B4
:1005E80094EA0C0F0CEA135518BF95EA0C0F0CD0BF
:1005F80050EA410618BF52EA4306D1D181EA030105
:1006080001F000414FF0000070BD50EA410606BFFE
:100618001046194652EA430619D094EA0C0F02D143
:1006280050EA013613D195EA0C0F05D152EA033688
:100638001CBF104619460AD181EA030101F00041A6
:1006480041F0FE4141F470014FF0000070BD41F0EF
:10065800FE4141F4780170BD81F0004102E000BF25
:1006680083F0004330B54FEA41044FEA430594EA6A
:10067800050F08BF90EA020F1FBF54EA000C55EAA5
:10068800020C7FEA645C7FEA655C00F0E2804FEA76
:100698005454D4EB5555B8BF6D420CDD2C4480EA58
:1006A800020281EA030382EA000083EA010180EA88
:1006B800020281EA0303362D88BF30BD11F0004FD6
:1006C8004FEA01314FF4801C4CEA113102D040420C
:1006D80061EB410113F0004F4FEA03334CEA133347
:1006E80002D0524263EB430394EA050F00F0A7805F
:1006F800A4F10104D5F1200E0DDB02FA0EFC22FA5A
:1007080005F2801841F1000103FA0EF2801843FA4D
:1007180005F359410EE0A5F120050EF1200E012A3E
:1007280003FA0EFC28BF4CF0020C43FA05F3C0187C
:1007380051EBE37101F0004507D54FF0000EDCF1F5
:10074800000C7EEB00006EEB0101B1F5801F1BD39E
:10075800B1F5001F0CD349085FEA30004FEA3C0CA2
:1007680004F101044FEA445212F5800F80F09A8098
:10077800BCF1004F08BF5FEA500C50F1000041EB9C
:10078800045141EA050130BD5FEA4C0C404141EBA0
:100798000101013C28BFB1F5801FE9D291F0000F9B
:1007A80004BF01460020B1FA81F308BF2033A3F14A
:1007B8000B03B3F120020CDA0C3208DD02F1140C41
:1007C800C2F10C0201FA0CF021FA02F10CE002F17C
:1007D8001402D8BFC2F1200C01FA02F120FA0CFC75
:1007E800DCBF41EA0C019040E41AA2BF01EB0451BE
:1007F800294330BD6FEA04041F3C1CDA0C340EDCBC
:1008080004F11404C4F1200220FA04F001FA02F3FE
:1008180040EA030021FA04F345EA030130BDC4F1BC
:100828000C04C4F1200220FA02F001FA04F340EAB1
:100838000300294630BD21FA04F0294630BD94F062
:10084800000F83F4801306BF81F480110134013D49
:100858004EE77FEA645C18BF7FEA655C29D094EABA
:10086800050F08BF90EA020F05D054EA000C04BF38
:100878001946104630BD91EA030F1EBF0021002023
:1008880030BD5FEA545C05D14000494128BF41F0C2
:10089800004130BD14F580043CBF01F5801130BD26
:1008A80001F0004545F0FE4141F470014FF00000B1
:1008B80030BD7FEA645C1ABF194610467FEA655C62
:1008C8001CBF0B46024650EA013406BF52EA033504
:1008D80091EA030F41F4002130BD00BF90F0000FF2
:1008E80004BF0021704730B54FF4806404F132042E
:1008F8004FF000054FF0000150E700BF90F0000FE7
:1009080004BF0021704730B54FF4806404F132040D
:1009180010F0004548BF40424FF000013EE700BFDD
:1009280042004FEAE2014FEA31014FEA02701FBF6D
:1009380012F07F4393F07F4F81F06051704732F09F
:100948007F4208BF704793F07F4F04BF41F40021F6
:10095800704730B54FF4607401F0004521F0004154
:100968001CE700BF50EA010208BF704730B54FF0DE
:1009780000050AE050EA010208BF704730B511F0DF
:10098800004502D5404261EB41014FF4806404F117
:1009980032045FEA915C3FF4D8AE4FF003025FEA9D
:1009A800DC0C18BF03325FEADC0C18BF033202EB21
:1009B800DC02C2F1200300FA03FC20FA02F001FA7B
:1009C80003FE40EA0E0021FA02F11444BDE600BF1E
:1009D8004A0011D212F5001211D20DD56FF47873B6
:1009E800B3EB62520ED44FEAC12343F0004343EA0B
:1009F800505323FA02F070474FF00000704750EA56
:100A0800013002D14FF0FF3070474FF000007047BF
:100A180053B94AB9002908BF00281CBF4FF0FF315D
:100A28004FF0FF3000F074B9ADF1080C6DE904CE59
:100A380000F006F8DDF804E0DDE9022304B07047B1
:100A48002DE9F047089D04468E46002B4DD18A4279
:100A5800944669D9B2FA82F252B101FA02F3C2F1AC
:100A6800200120FA01F10CFA02FC41EA030E94403D
:100A78004FEA1C48210CBEFBF8F61FFA8CF708FB5E
:100A880016E341EA034306FB07F199420AD91CEB36
:100A9800030306F1FF3080F01F81994240F21C8168
:100AA800023E63445B1AA4B2B3FBF8F008FB1033B0
:100AB80044EA034400FB07F7A7420AD91CEB0404E5
:100AC80000F1FF3380F00A81A74240F207816444B5
:100AD800023840EA0640E41B00261DB1D44000233A
:100AE800C5E900433146BDE8F0878B4209D9002D9E
:100AF80000F0EF800026C5E9000130463146BDE828
:100B0800F087B3FA83F6002E4AD18B4202D3824291
:100B180000F2F980841A61EB030301209E46002D40
:100B2800E0D0C5E9004EDDE702B9FFDEB2FA82F295
:100B3800002A40F09280A1EB0C014FEA1C471FFAF3
:100B48008CFE0126200CB1FBF7F307FB131140EADA
:100B580001410EFB03F0884208D91CEB010103F1A7
:100B6800FF3802D2884200F2CB804346091AA4B269
:100B7800B1FBF7F007FB101144EA01440EFB00FE3D
:100B8800A64508D91CEB040400F1FF3102D2A645A2
:100B980000F2BB800846A4EB0E0440EA03409CE741
:100BA800C6F12007B34022FA07FC4CEA030C20FAEE
:100BB80007F401FA06F31C43F9404FEA1C4900FA0E
:100BC80006F3B1FBF9F8200C1FFA8CFE09FB18118B
:100BD80040EA014108FB0EF0884202FA06F20BD9FE
:100BE8001CEB010108F1FF3A80F08880884240F24E
:100BF8008580A8F102086144091AA4B2B1FBF9F092
:100C080009FB101144EA014100FB0EFE8E4508D98C
:100C18001CEB010100F1FF346CD28E456AD9023811
:100C2800614440EA0840A0FB0294A1EB0E01A142F6
:100C3800C846A64656D353D05DB1B3EB080261EB64
:100C48000E0101FA07F722FA06F3F1401F43C5E93E
:100C5800007100263146BDE8F087C2F12003D84074
:100C68000CFA02FC21FA03F3914001434FEA1C47B6
:100C78001FFA8CFEB3FBF7F007FB10360B0C43EAA8
:100C8800064300FB0EF69E4204FA02F408D91CEB58
:100C9800030300F1FF382FD29E422DD90238634456
:100CA8009B1B89B2B3FBF7F607FB163341EA0341F6
:100CB80006FB0EF38B4208D91CEB010106F1FF3845
:100CC80016D28B4214D9023E6144C91A46EA00463C
:100CD80038E72E46284605E70646E3E61846F8E6CE
:100CE8004B45A9D2B9EB020864EB0C0E0138A3E717
:100CF8004646EAE7204694E74046D1E7D0467BE7F8
:100D0800023B614432E7304609E76444023842E76F
:100D1800704700BF80B582B000AF264B3B60A82269
:100D28000021386810F0A8F93B6803221A613B6873
:100D380003225A613B68204A9A613B681F4ADA617C
:100D48003B684FF480621A623B6800229A623B68F3
:100D580000225A623B680022DA623B68164A1A6629
:100D68003B68174A5A663B6810229A663B6800221D
:100D78001A673B680022DA663B6800225A67BFF3AD
:100D88005F8F00237B600CE07B68C3F10F030D4A83
:100D9800D15C3A687B6813440A461A707B68013351
:100DA8007B607B680F2BEFD9BFF35F8F00BF0837DD
:100DB800BD4680BDA4000020D01201084C010020CF
:100DC8004C050020C420010880B58CB000AFF86045
:100DD800B9607A603E4B3B623B6A1B78DBB2002B02
:100DE80001D1FFF797FFFA6813465B001344DB0055
:100DF8006033374A1344FB61BB687B62FB691B693C
:100E0800BB62FB69DB68BB610023FB62BA6ABB6932
:100E18009A422BD9FB699A68BB6AD31A7B617A69B3
:100E28007B68934228BF13467B61FB695A68BB6A9B
:100E380013443B617A693969786A10F00FF9FA6AE4
:100E48007B691344FB627A6A7B6913447B627A6824
:100E58007B69D31A7B60BA6A7B691344BB62FB69FE
:100E68009B68BA6A9A4201D10023BB62BA69BB6A1D
:100E7800D31A7B617A697B68934228BF13467B61EA
:100E88007B69002B19D0FB695A68BB6A13443B6124
:100E98007A693969786A10F0E1F8FA6A7B6913446B
:100EA800FB627A6A7B6913447B627A687B69D31A2E
:100EB8007B60BA6A7B691344BB62FB6A002B02D071
:100EC800FB69BA6A1A61FB6A18463037BD4680BDAD
:100ED800A400002080B588B000AFF860B9607A60DF
:100EE8003B603D4BBB61BB691B78DBB2002B01D17A
:100EF800FFF710FFEFF311834FF0200181F3118802
:100F08007B61354B3B610023FB613969FB695A1CE6
:100F180013465B001344DB000B4404331B68002BAF
:100F280008D0FB690133FB613B691B69FA699A4286
:100F3800EBDB00E000BF3B691B69FA699A423FDAC4
:100F48003969FB695A1C13465B001344DB000B44E8
:100F5800FA681A603969FB695A1C13465B00134426
:100F6800DB000B440433BA681A603969FA6913461E
:100F78005B001344DB000B4420337A681A6039693C
:100F8800FA6913465B001344DB000B442833002244
:100F98001A603969FA6913465B001344DB000B4495
:100FA800243300221A603969FA6913465B00134436
:100FB800DB000B442C333A681A60BFF35F8F02E002
:100FC8004FF0FF33FB617B6983F31188FB69184697
:100FD8002037BD4680BD00BFA400002080B58AB080
:100FE80000AFF860B9607A603B60214B3B623B6AB6
:100FF8001B78DBB2002B01D1FFF78CFE1C4BFB6189
:10100800FB68022B2CD8EFF311834FF0200181F3FA
:101018001188BB61FA6813465B001344DB00603338
:10102800FA6913447B61FB68002B0ED07B69BA68B0
:101038001A607B697A685A607B693A689A607B694A
:1010480000221A617B690022DA607B693A6B5A6177
:10105800BFF35F8FBB6983F3118800237B6202E0D3
:101068004FF0FF337B627B6A18462837BD4680BD48
:10107800A400002080B487B000AFF860B9607A603F
:1010880000233B61BB68002B0FD002E03B690133B2
:101098003B61BA683B6913441B78002BF6D13A6967
:1010A8007B689A4201D97B683B613B69FE2B06D875
:1010B800FB685A1CFA603A69D2B21A7011E0FB68F0
:1010C8005A1CFA60FF221A70FB685A1CFA603A69C7
:1010D800D2B21A703B69190AFB685A1CFA60CAB284
:1010E8001A7000237B610AE0BA68531CBB60FB6876
:1010F800591CF96012781A707B6901337B617A692F
:101108003B699A42F0D3FB6818461C37BD465DF828
:10111800047B704780B483B000AF78607B68073386
:1011280018460C37BD465DF8047B704780B582B021
:1011380000AF354B1B7E1846FB1C01221946FFF7F2
:1011480043FE78607B68002B52D0FB78802B31D02F
:10115800802B40DC072B15DC002B3CDD013B062BEC
:1011680039D801A252F823F0931100089911000808
:101178009F110008A5110008AB110008B111000863
:10118800B71100087F2B35D025E000F08DFD36E043
:1011980000F044FE33E001F01DF830E000F0E2FF1B
:1011A8002DE000F061FE2AE001F046FC27E001F0A6
:1011B80025FC24E0144B1B7E1846FB1C0122194613
:1011C800FFF702FE78607B68002B15D0FB78184685
:1011D80001F094FB10E0FB785BB2002B0EDA0A4BAF
:1011E8001B7E1846FB1C01221946FFF7EDFD05E0A2
:1011F80000BF04E000BF02E000BF00E000BF00BF86
:101208000837BD4680BD00BF6409002080B58CB09A
:1012180000AF01233B713B1D0133FB61FB69FB629E
:10122800314B5B69BB620BE0BB6ADAB2FB6A591CE3
:10123800F96262F07F02D2B21A70BB6ADB09BB6244
:10124800BB6A7F2BF0D8FB6A5A1CFA62BA6AD2B220
:101258001A70FB6AFB61254B1B68BB61224BDB687C
:10126800BA69D31A7B61FB697B627B693B620BE0DD
:101278003B6ADAB27B6A591C796262F07F02D2B2A9
:101288001A703B6ADB093B623B6A7F2BF0D87B6AAA
:101298005A1C7A623A6AD2B21A707B6AFB61124BA4
:1012A8005B7818463B1DFA69D31A1A463B1D194646
:1012B800FEF7A6FF03463B613B69002B09D00A4AAB
:1012C800BB69D360084B1B78013BDAB2064B1A7036
:1012D80004E0054B5B690133034A53613B691846D7
:1012E8003037BD4680BD00BF64090020041000E00F
:1012F80080B58AB000AFF860B9607A60984B1B7807
:10130800012B10D0964B1B78002B00F02D81944BAD
:101318001B78022B09D1FFF779FF914B1B78012B22
:1013280040F0248101E000BF00E000BF7B681F2B74
:1013380009D88B4BDA697B6822FA03F303F00103BF
:10134800002B40F015817B68172B07D8FB68013B01
:10135800FB607B68DAB2FB681A70C4E0BA68FB68A5
:10136800D31AFB61FB697F2B12D9FB69DA09FB6889
:10137800013BFB60D2B2FB681A70FB69DBB2FA680A
:10138800013AFA6063F07F03DAB2FB681A7006E08C
:10139800FB68013BFB60FB69DAB2FB681A707B688B
:1013A8007E2B07D8FB68013BFB607B68DAB2FB68E1
:1013B8001A7098E07B68B3F5804F12D27B68DA091F
:1013C800FB68013BFB60D2B2FB681A707B68DBB23A
:1013D800FA68013AFA6063F07F03DAB2FB681A70C0
:1013E80081E07B68B3F5001F1DD27B689A0BFB6810
:1013F800013BFB60D2B2FB681A707B68DB09DBB289
:10140800FA68013AFA6063F07F03DAB2FB681A708F
:101418007B68DBB2FA68013AFA6063F07F03DAB2FC
:10142800FB681A705FE07B68B3F1805F28D27B6845
:101438005A0DFB68013BFB60D2B2FB681A707B68EF
:101448009B0BDBB2FA68013AFA6063F07F03DAB209
:10145800FB681A707B68DB09DBB2FA68013AFA604C
:1014680063F07F03DAB2FB681A707B68DBB2FA6854
:10147800013AFA6063F07F03DAB2FB681A7032E06F
:101488007B681A0FFB68013BFB60D2B2FB681A70DD
:101498007B685B0DDBB2FA68013AFA6063F07F03A0
:1014A800DAB2FB681A707B689B0BDBB2FA68013A08
:1014B800FA6063F07F03DAB2FB681A707B68DB09B5
:1014C800DBB2FA68013AFA6063F07F03DAB2FB68CC
:1014D8001A707B68DBB2FA68013AFA6063F07F033E
:1014E800DAB2FB681A701F4B1B68BB611C4BDB68C8
:1014F800BA69D31A7B61BB687B627B693B620BE08C
:101508003B6ADAB27B6A591C796262F07F02D2B216
:101518001A703B6ADB093B623B6A7F2BF0D87B6A17
:101528005A1C7A623A6AD2B21A707B6ABB600C4B58
:101538005B781846BA68FB68D31A1A46F968FEF74A
:101548005FFE38613B69002B03D0054ABB69D36055
:101558000FE0034B1B780133DAB2014B1A7008E035
:1015680064090020041000E000BF02E000BF00E0B2
:1015780000BF144B1B7E1946134A0B465B000B44F5
:10158800DB0013446C331A680E4B1B7E18460E4959
:1015980003465B000344DB000B4470331B689A422C
:1015A8000BD0084B9B78002B07D1064B01229A7071
:1015B800FFF7BCFD034B00229A7000BF2837BD46D9
:1015C80080BD00BF64090020A400002080B5A2B03F
:1015D80000AFF860B9607A60FB68FB670023C7F862
:1015E8008030FB6F5A1CFA671B7887F85F3097F8D2
:1015F8005F30002B1DD097F85F30252BF1D1FB6FA2
:101608001B7887F85F307B681B68191D7A68116042
:101618001968D7F880305A1CC7F880200A469B0002
:1016280088333B4443F8742CD7F88030102B02D011
:10163800D7E700BF00E000BFEFF311834FF02001B0
:1016480081F31188BB653F48FFF764FD7865802208
:10165800F968786DFFF70EFDB867BB6F7B67BB68ED
:101668003B670BE03B6FDAB27B6F591C796762F01E
:101678007F02D2B21A703B6FDB093B673B6F7F2B4F
:10168800F0D87B6F5A1C7A673A6FD2B21A707B6FA8
:10169800BB67BB6FFB66D7F88030BB660BE0BB6EE1
:1016A800DAB2FB6E591CF96662F07F02D2B21A7088
:1016B800BB6EDB09BB66BB6E7F2BF0D8FB6E5A1C7A
:1016C800FA66BA6ED2B21A70FB6EBB6707F11403E2
:1016D800C7F8843022E0BB6F7B66D7F884301B687C
:1016E8003B660BE03B6EDAB27B6E591C796662F0A2
:1016F8007F02D2B21A703B6EDB093B663B6E7F2BD2
:10170800F0D87B6E5A1C7A663A6ED2B21A707B6E2B
:10171800BB67D7F884300433C7F88430D7F88030F3
:101728005A1EC7F88020002BD5D11A22B96F786DC0
:10173800FFF7DEFDBB6D83F3118800231846883759
:10174800BD4680BD9409002080B586B002AFF86020
:10175800B9607A603B6000234FF4806218491948E9
:10176800FFF7B8FB0346DAB2174B5A70164B5A7894
:10177800154B1A76144B1B7E18460023009308233A
:10178800124A1049FFF72AFC0F4B4FF000521A611A
:101798000F4B1B680C4AD3600B4A7B6813620A4ADA
:1017A800FB685360084ABB689360074A3B6853620A
:1017B800054B00221A7000BF1037BD4680BD00BF20
:1017C8005C050020DC120108640900205C09002087
:1017D800041000E080B584B000AF7860EFF31183A7
:1017E8004FF0200181F31188FB600848FFF792FC55
:1017F800B8607A68B968B868FFF77AFDFB6883F360
:10180800118800BF1037BD4680BD00BF9409002075
:1018180080B588B000AF78603960EFF311834FF07E
:10182800200181F311887B611648FFF773FC38614A
:101838003B69FB60FB68FB613B68BB610BE0BB6914
:10184800DAB2FB69591CF96162F07F02D2B21A70F0
:10185800BB69DB09BB61BB697F2BF0D8FB695A1CEC
:10186800FA61BA69D2B21A70FB69FB607A68F968E2
:101878003869FFF73DFD7B6983F3118800BF203786
:10188800BD4680BD9409002080B58CB000AFF860DB
:10189800B9607A60EFF311834FF0200181F311886A
:1018A800FB612548FFF736FCB861BB697B617B6942
:1018B800FB62BB68BB620BE0BB6ADAB2FB6A591C0D
:1018C800F96262F07F02D2B21A70BB6ADB09BB62AE
:1018D800BB6A7F2BF0D8FB6A5A1CFA62BA6AD2B28A
:1018E8001A70FB6A7B617B697B627B683B620BE0F9
:1018F8003B6ADAB27B6A591C796262F07F02D2B223
:101908001A703B6ADB093B623B6A7F2BF0D87B6A23
:101918005A1C7A623A6AD2B21A707B6A7B61FA6898
:101928007969B869FFF7E4FCFB6983F3118800BFA4
:101938003037BD4680BD00BF9409002080B58EB009
:1019480000AFF860B9607A603B60EFF311834FF045
:10195800200181F31188FB613248FFF7DBFBB86196
:10196800BB697B617B697B63BB683B630BE03B6B5B
:10197800DAB27B6B591C796362F07F02D2B21A70BB
:101988003B6BDB093B633B6B7F2BF0D87B6B5A1CB3
:101998007A633A6BD2B21A707B6B7B617B69FB62AC
:1019A8007B68BB620BE0BB6ADAB2FB6A591CF9625E
:1019B80062F07F02D2B21A70BB6ADB09BB62BB6AF3
:1019C8007F2BF0D8FB6A5A1CFA62BA6AD2B21A7034
:1019D800FB6A7B617B697B623B683B620BE03B6A2D
:1019E800DAB27B6A591C796262F07F02D2B21A704D
:1019F8003B6ADB093B623B6A7F2BF0D87B6A5A1C47
:101A08007A623A6AD2B21A707B6A7B61FA6879693B
:101A1800B869FFF76DFCFB6983F3118800BF38379D
:101A2800BD4680BD9409002080B590B000AFF86035
:101A3800B9607A603B60EFF311834FF0200181F3C6
:101A48001188FB614048FFF765FBB861BB697B61A2
:101A58007B69FB63BB68BB630BE0BB6BDAB2FB6BF8
:101A6800591CF96362F07F02D2B21A70BB6BDB09B2
:101A7800BB63BB6B7F2BF0D8FB6B5A1CFA63BA6B4A
:101A8800D2B21A70FB6B7B617B697B637B683B63BB
:101A98000BE03B6BDAB27B6B591C796362F07F0217
:101AA800D2B21A703B6BDB093B633B6B7F2BF0D8E0
:101AB8007B6B5A1C7A633A6BD2B21A707B6B7B6170
:101AC8007B69FB623B68BB620BE0BB6ADAB2FB6A0C
:101AD800591CF96262F07F02D2B21A70BB6ADB0944
:101AE800BB62BB6A7F2BF0D8FB6A5A1CFA62BA6ADF
:101AF800D2B21A70FB6A7B617B697B62BB6C3B620A
:101B08000BE03B6ADAB27B6A591C796262F07F02A9
:101B1800D2B21A703B6ADB093B623B6A7F2BF0D872
:101B28007B6A5A1C7A623A6AD2B21A707B6A7B6103
:101B3800FA687969B869FFF7DBFBFB6983F31188F9
:101B480000BF4037BD4680BD9409002080B592B0E3
:101B580000AFF860B9607A603B60EFF311834FF033
:101B6800200181F31188FB614E48FFF7D3FAB86171
:101B7800BB697B617B697B64BB683B640BE03B6C46
:101B8800DAB27B6C591C796462F07F02D2B21A70A7
:101B98003B6CDB093B643B6C7F2BF0D87B6C5A1C9D
:101BA8007A643A6CD2B21A707B6C7B617B69FB6396
:101BB8007B68BB630BE0BB6BDAB2FB6B591CF96348
:101BC80062F07F02D2B21A70BB6BDB09BB63BB6BDE
:101BD8007F2BF0D8FB6B5A1CFA63BA6BD2B21A701F
:101BE800FB6B7B617B697B633B683B630BE03B6B17
:101BF800DAB27B6B591C796362F07F02D2B21A7039
:101C08003B6BDB093B633B6B7F2BF0D87B6B5A1C30
:101C18007A633A6BD2B21A707B6B7B617B69FB6229
:101C28003B6DBB620BE0BB6ADAB2FB6A591CF96216
:101C380062F07F02D2B21A70BB6ADB09BB62BB6A70
:101C48007F2BF0D8FB6A5A1CFA62BA6AD2B21A70B1
:101C5800FB6A7B617B697B627B6D3B620BE03B6A65
:101C6800DAB27B6A591C796262F07F02D2B21A70CA
:101C78003B6ADB093B623B6A7F2BF0D87B6A5A1CC4
:101C88007A623A6AD2B21A707B6A7B61FA687969B9
:101C9800B869FFF72DFBFB6983F3118800BF48374C
:101CA800BD4680BD9409002080B58CB000AF584B6C
:101CB80001221A70EFF311834FF0200181F311888C
:101CC800FB60534B5B780A2252491846FEF798FA94
:101CD800FB6883F311880A20FFF77CFDEFF311837B
:101CE8004FF0200181F31188BB604B48FFF712FACF
:101CF80078607B683B603B68FB62454B5B68BB6216
:101D08000BE0BB6ADAB2FB6A591CF96262F07F0227
:101D1800D2B21A70BB6ADB09BB62BB6A7F2BF0D8F0
:101D2800FB6A5A1CFA62BA6AD2B21A70FB6A3B6042
:101D38003B687B62364B9B683B620BE03B6ADAB2DE
:101D48007B6A591C796262F07F02D2B21A703B6AD0
:101D5800DB093B623B6A7F2BF0D87B6A5A1C7A62AC
:101D68003A6AD2B21A707B6A3B603B68FB61284BC7
:101D78001B69BB610BE0BB69DAB2FB69591CF961ED
:101D880062F07F02D2B21A70BB69DB09BB61BB6922
:101D98007F2BF0D8FB695A1CFA61BA69D2B21A7063
:101DA800FB693B603B687B6100233B610BE03B695F
:101DB800DAB27B69591C796162F07F02D2B21A707B
:101DC8003B69DB093B613B697F2BF0D87B695A1C77
:101DD8007A613A69D2B21A707B693B601822396815
:101DE8007868FFF785FABB6883F31188084B5B6A4C
:101DF800002B02D0064B5B6A984700F0EBF900F025
:101E0800B1F900F019FE00BF3037BD4680BD00BFF4
:101E180064090020D82001089409002080B582B008
:101E280000AFEFF311834FF0200181F311887B603D
:101E38000B48FFF76FF938600A4B1B78002B07D067
:101E48000B2239683868FFF753FA064B00221A70DC
:101E58007B6883F3118800BF0837BD4680BD00BF8B
:101E6800940900206409002080B58CB000AFEFF31E
:101E780011834FF0200181F31188FB604548FFF77B
:101E880049F9B860BB687B607B68FB62424B5B6862
:101E9800BB620BE0BB6ADAB2FB6A591CF96262F0FA
:101EA8007F02D2B21A70BB6ADB09BB62BB6A7F2BA6
:101EB800F0D8FB6A5A1CFA62BA6AD2B21A70FB6A84
:101EC8007B607B687B62344B9B683B620BE03B6AC0
:101ED800DAB27B6A591C796262F07F02D2B21A7058
:101EE8003B6ADB093B623B6A7F2BF0D87B6A5A1C52
:101EF8007A623A6AD2B21A707B6A7B607B68FB614D
:101F0800254B1B69BB610BE0BB69DAB2FB69591C45
:101F1800F96162F07F02D2B21A70BB69DB09BB615A
:101F2800BB697F2BF0D8FB695A1CFA61BA69D2B237
:101F38001A70FB697B607B687B6100233B610BE067
:101F48003B69DAB27B69591C796162F07F02D2B2CF
:101F58001A703B69DB093B613B697F2BF0D87B69D1
:101F68005A1C7A613A69D2B21A707B697B6018226E
:101F78007968B868FFF7BCF9FB6883F31188064BEA
:101F88005B6A002B02D0044B5B6A984700BF30376E
:101F9800BD4680BD940900206409002080B592B038
:101FA80000AF7860EFF311834FF0200181F31188BF
:101FB8007B616A48FFF7AEF838613B69FB60FB68F4
:101FC8007B647B681A68664B1B69D31A3B640BE019
:101FD8003B6CDAB27B6C591C796462F07F02D2B236
:101FE8001A703B6CDB093B643B6C7F2BF0D87B6C35
:101FF8005A1C7A643A6CD2B21A707B6CFB60FB682C
:10200800FB637B689B68BB630BE0BB6BDAB2FB6B63
:10201800591CF96362F07F02D2B21A70BB6BDB09FC
:10202800BB63BB6B7F2BF0D8FB6B5A1CFA63BA6B94
:10203800D2B21A70FB6BFB607B685B682022194682
:10204800F868FFF717F8F8600922F9683869FFF7A8
:102058004FF93B69FB60FB687B637B681A68404B00
:102068001B69D31A3B630BE03B6BDAB27B6B591CE1
:10207800796362F07F02D2B21A703B6BDB093B6373
:102088003B6B7F2BF0D87B6B5A1C7A633A6BD2B2CE
:102098001A707B6BFB60FB68FB627B68DB68BB626A
:1020A8000BE0BB6ADAB2FB6A591CF96262F07F0284
:1020B800D2B21A70BB6ADB09BB62BB6A7F2BF0D84D
:1020C800FB6A5A1CFA62BA6AD2B21A70FB6AFB60DF
:1020D800FB687B627B681B693B620BE03B6ADAB298
:1020E8007B6A591C796262F07F02D2B21A703B6A2D
:1020F800DB093B623B6A7F2BF0D87B6A5A1C7A6209
:102108003A6AD2B21A707B6AFB60FB68FB610023F3
:10211800BB610BE0BB69DAB2FB69591CF96162F07B
:102128007F02D2B21A70BB69DB09BB61BB697F2B26
:10213800F0D8FB695A1CFA61BA69D2B21A70FB6905
:10214800FB601522F9683869FFF7D2F87B6983F3D9
:10215800118800BF4837BD4680BD00BF94090020E4
:102168006409002080B500AF074B1B6A002B08D01C
:10217800054B1B6A5B68002B03D0034B1B6A5B682B
:10218800984700BF80BD00BF6409002080B586B0B5
:1021980000AF7860EFF311834FF0200181F31188CD
:1021A8007B610B48FEF7B6FF386180227968386991
:1021B800FEF760FFF8600E22F9683869FFF798F8B3
:1021C8007B6983F3118800BF1837BD4680BD00BF07
:1021D8009409002090B583B000AF154B1B6A002B03
:1021E8001AD0134B1B6A1B68002B15D0104B1B6AA7
:1021F8001B689847C7E900013C68D7E900014FF020
:1022080000024FF000030A00002313461A46214635
:102218000D20FFF739FB06E0064B1B6819460C201A
:10222800FFF7F6FA00BF00BF0C37BD4690BD00BFF0
:1022380064090020041000E080B586B000AFEFF319
:1022480011834FF0200181F31188FB601948FEF7D4
:1022580061FFB860BB687B60174B1B68C3F308035A
:102268003B607B687B613B683B610BE03B69DAB2B2
:102278007B69591C796162F07F02D2B21A703B699E
:10228800DB093B613B697F2BF0D87B695A1C7A617B
:102298003A69D2B21A707B697B6002227968B868A1
:1022A800FFF726F8FB6883F3118800BF1837BD468F
:1022B80080BD00BF9409002004ED00E080B582B025
:1022C80000AFEFF311834FF0200181F311887B6099
:1022D8000748FEF71FFF3860032239683868FFF7A0
:1022E80007F87B6883F3118800BF0837BD4680BDB7
:1022F8009409002080B582B000AFEFF311834FF04E
:10230800200181F311887B600748FEF703FF3860DE
:10231800122239683868FEF7EBFF7B6883F311886F
:1023280000BF0837BD4680BD9409002080B588B03D
:1023380000AF7860EFF311834FF0200181F311882B
:102348007B611848FEF7E6FE38613B69FB60FB6875
:10235800FB61154B1B697A68D31ABB610BE0BB693B
:10236800DAB2FB69591CF96162F07F02D2B21A70C5
:10237800BB69DB09BB61BB697F2BF0D8FB695A1CC1
:10238800FA61BA69D2B21A70FB69FB601322F96864
:102398003869FEF7ADFF7B6983F3118800BF2037EA
:1023A800BD4680BD940900206409002080B582B034
:1023B80000AFEFF311834FF0200181F311887B60A8
:1023C8000748FEF7A7FE3860142239683868FEF718
:1023D8008FFF7B6883F3118800BF0837BD4680BD37
:1023E8009409002080B588B000AF7860EFF31183BE
:1023F8004FF0200181F311887B611748FEF78AFEB0
:1024080038613B69FB60FB68FB617B68BB610BE083
:10241800BB69DAB2FB69591CF96162F07F02D2B27A
:102428001A70BB69DB09BB61BB697F2BF0D8FB69FC
:102438005A1CFA61BA69D2B21A70FB69FB601C2295
:10244800F9683869FEF754FF7B6983F3118800BF88
:102458002037BD4680BD00BF9409002080B58AB0F2
:1024680000AF78603960EFF311834FF0200181F3FA
:1024780011887B612448FEF74DFE38613B69FB609B
:10248800FB687B627B683B620BE03B6ADAB27B6A83
:10249800591C796262F07F02D2B21A703B6ADB097A
:1024A8003B623B6A7F2BF0D87B6A5A1C7A623A6A95
:1024B800D2B21A707B6AFB60FB68FB613B68BB6148
:1024C8000BE0BB69DAB2FB69591CF96162F07F0263
:1024D800D2B21A70BB69DB09BB61BB697F2BF0D82C
:1024E800FB695A1CFA61BA69D2B21A70FB69FB60BF
:1024F8001C22F9683869FEF7FBFE7B6983F31188B3
:1025080000BF2837BD4680BD9409002080B582B041
:1025180000AFEFF311834FF0200181F311887B6046
:102528000748FEF7F7FD3860112239683868FEF76A
:10253800DFFE7B6883F3118800BF0837BD4680BD86
:102548009409002080B588B000AF7860EFF311835C
:102558004FF0200181F311887B611948FEF7DAFDFD
:1025680038613B69FB60174B1B697A68D31A7B603B
:10257800FB68FB617B68BB610BE0BB69DAB2FB6996
:10258800591CF96162F07F02D2B21A70BB69DB098B
:10259800BB61BB697F2BF0D8FB695A1CFA61BA6929
:1025A800D2B21A70FB69FB600822F9683869FEF735
:1025B8009FFE7B6983F3118800BF2037BD4680BD2D
:1025C800940900206409002080B588B000AF7860C5
:1025D800EFF311834FF0200181F311887B611948D3
:1025E800FEF798FD38613B69FB60174B1B697A68F9
:1025F800D31A7B60FB68FB617B68BB610BE0BB693E
:10260800DAB2FB69591CF96162F07F02D2B21A7022
:10261800BB69DB09BB61BB697F2BF0D8FB695A1C1E
:10262800FA61BA69D2B21A70FB69FB601D22F968B7
:102638003869FEF75DFE7B6983F3118800BF203798
:10264800BD4680BD940900206409002080B588B08B
:1026580000AF7860EFF311834FF0200181F3118808
:102668007B611948FEF756FD38613B69FB60174BE3
:102678001B697A68D31A7B60FB68FB617B68BB6166
:102688000BE0BB69DAB2FB69591CF96162F07F02A1
:10269800D2B21A70BB69DB09BB61BB697F2BF0D86A
:1026A800FB695A1CFA61BA69D2B21A70FB69FB60FD
:1026B8000422F9683869FEF71BFE7B6983F31188E9
:1026C80000BF2037BD4680BD940900206409002062
:1026D80080B582B000AFEFF311834FF0200181F392
:1026E80011887B600748FEF715FD386005223968B8
:1026F8003868FEF7FDFD7B6883F3118800BF083753
:10270800BD4680BD9409002080B588B000AF7860D0
:10271800EFF311834FF0200181F311887B61194891
:10272800FEF7F8FC38613B69FB60174B1B697A6858
:10273800D31A7B60FB68FB617B68BB610BE0BB69FC
:10274800DAB2FB69591CF96162F07F02D2B21A70E1
:10275800BB69DB09BB61BB697F2BF0D8FB695A1CDD
:10276800FA61BA69D2B21A70FB69FB600622F9688D
:102778003869FEF7BDFD7B6983F3118800BF2037F8
:10278800BD4680BD940900206409002080B58AB048
:1027980000AF78603960EFF311834FF0200181F3C7
:1027A80011887B612748FEF7B5FC38613B69FB60FF
:1027B800254B1B697A68D31A7B60FB687B627B6850
:1027C8003B620BE03B6ADAB27B6A591C796262F0C1
:1027D8007F02D2B21A703B6ADB093B623B6A7F2BED
:1027E800F0D87B6A5A1C7A623A6AD2B21A707B6A4B
:1027F800FB60FB68FB613B68BB610BE0BB69DAB25D
:10280800FB69591CF96162F07F02D2B21A70BB6988
:10281800DB09BB61BB697F2BF0D8FB695A1CFA61E5
:10282800BA69D2B21A70FB69FB600722F968386985
:10283800FEF75EFD7B6983F3118800BF2837BD462C
:1028480080BD00BF940900206409002080B588B0CD
:1028580000AF78603960EFF311834FF0200181F306
:1028680011887B611B48FEF755FC38613B69FB60AA
:10287800FB68FB61184B1B697A68D31ABB610BE0D4
:10288800BB69DAB2FB69591CF96162F07F02D2B206
:102898001A70BB69DB09BB61BB697F2BF0D8FB6988
:1028A8005A1CFA61BA69D2B21A70FB69FB608022BD
:1028B8003968F868FEF7DEFBF8601922F9683869AC
:1028C800FEF716FD7B6983F3118800BF2037BD46EC
:1028D80080BD00BF940900206409002080B483B043
:1028E80000AF7860044B1B697A68D31A18460C3716
:1028F800BD465DF8047B70476409002080B58CB044
:1029080000AF0346FB713B4B1B68002B6DD0394B66
:102918001B68FB620023BB6208E0FB6A1B69FB6261
:10292800FB6A002B07D0BB6A0133BB62FB79BA6A2A
:102938009A42F2D300E000BFFB6A002B55D0EFF3B8
:1029480011834FF0200181F311887B612A48FEF73B
:10295800E1FB38613B69FB60FB687B62FB793B62AA
:102968000BE03B6ADAB27B6A591C796262F07F023B
:10297800D2B21A703B6ADB093B623B6A7F2BF0D804
:102988007B6A5A1C7A623A6AD2B21A707B6AFB6016
:10299800FB68FB61FB6A9B68BB610BE0BB69DAB251
:1029A800FB69591CF96162F07F02D2B21A70BB69E7
:1029B800DB09BB61BB697F2BF0D8FB695A1CFA6144
:1029C800BA69D2B21A70FB69FB60FB6A1B68802285
:1029D8001946F868FEF74EFBF8601622F968386960
:1029E800FEF786FC7B6983F3118800BF3037BD464C
:1029F80080BD00BF8C0900209409002080B582B0FA
:102A080000AF0C4B1B68002B0FD00A4B1B687B6078
:102A18007B68DB68002B02D07B68DB6898477B68A3
:102A28001B697B607B68002BF2D100BF0837BD466D
:102A380080BD00BF8C09002080B586B000AFEFF3E1
:102A480011834FF0200181F31188FB601748FEF7CE
:102A580061FBB860BB687B607B687B61144B1B784B
:102A68003B610BE03B69DAB27B69591C796162F022
:102A78007F02D2B21A703B69DB093B613B697F2B4D
:102A8800F0D87B695A1C7A613A69D2B21A707B69AC
:102A98007B601B227968B868FEF72AFCFB6883F321
:102AA800118800BF1837BD4680BD00BF94090020BB
:102AB800900900200FB480B582B000AF07F114036D
:102AC8007B603B1D1A4600213869FEF77FFD00BF79
:102AD8000837BD46BDE8804004B0704780B500AFF8
:102AE8000348FFF753FB0348FFF750FB00BF80BDC7
:102AF800E41201081013010880B500AF0E4B1B68E3
:102B080003F00073002B0BD10B4B1B6803F0010380
:102B1800002B05D1084B1B68074A43F001031360DB
:102B2800064B074A07490748FEF70EFE06480CF011
:102B380027FD00BF80BD00BF001000E0E52A0008A7
:102B4800402101080095BA0AE420010880B588B040
:102B580000AF78600DF0C4FA07F10C0314220021CD
:102B680018460EF089FA7B68FB6078680CF0CCFF99
:102B780003463B617B681B697B6178680DF06CFEDE
:102B88000346BB617B689B6AFB6107F10C0318462F
:102B9800FFF704FA0DF020F800BF2037BD4680BDCE
:102BA80080B582B000AF0DF09BFA134B9B697B6038
:102BB80005E07868FFF7CAFF7B681B687B607B6865
:102BC800002BF6D10C4B5B6E3B600BE03B685B68FF
:102BD8001A463B689B6819461046FFF737FE3B6864
:102BE8001B683B603B68002BF0D10CF0F5FF00BF81
:102BF8000837BD4680BD00BFA851002080B5BCB0D5
:102C080000AF0023C7F8A43007F1A8032E22002143
:102C180018460EF031FA0023A7F8EE300023A7F883
:102C2800A23003200CF0C2FDC7F8E800A348FFF764
:102C380041FF07F1800300221A605A609A60DA6047
:102C48000023C7F8E43000237B6007F10803602203
:102C5800002118460EF010FA994B1B791A46984B2A
:102C68005B791B021343C7F8E430954B0022DA73F3
:102C7800D7F8E4109348FFF71DFF0CF0C9FBD7F80D
:102C8800E430013318460EF037F9C7F8E0000CF0CD
:102C9800FDFBD7F8E030002B03D18B48FFF70AFF84
:102CA8000AE18A48FFF706FFD7F8E4309BB21A46D4
:102CB8000621D7F8E00000F0D5FF8548FFF7FAFEB7
:102CC800D7F8E030C7F89030D7F8E430C7F8943038
:102CD8000023C7F898300CF09BFB4FF496700EF069
:102CE8000BF9C7F8DC000CF0D1FBD7F8DC30002B6F
:102CF80003D17848FFF7DEFEDEE04FF49671D7F88F
:102D0800DC0001F0DDFED7F8E83003F00103002B0A
:102D18000AD0714BC7F89C3007F1A4036F4A704979
:102D2800184601F09EF827E0D7F8E83003F00203D0
:102D3800002B21D00023BB6607F16C0300221A6028
:102D48009A8007F168031946D7F8E40001F0D4F82F
:102D580007F168023B1D6349184601F082F83B1DE4
:102D6800C7F89830604BC7F89C3007F1A4035F4A56
:102D78005B49184601F075F807F1A20307F19002C4
:102D880007F1A401012001F0ABFF0346A7F8EE30DC
:102D9800002387F88D30002387F88E300123C7F889
:102DA8008030022387F88C30B7F8EE30DBB287F832
:102DB8008430B7F8EE301B0A9BB2DBB287F8853057
:102DC800B7F8EE30C82B02D04948FFF773FE00234E
:102DD8007B6707F1780300221A60C3F80320D7F84D
:102DE800E83003F00103002B51D0B7F8EE30C82BC0
:102DF8004DD10CF00DFBB7F8A23018460EF07CF858
:102E0800C7F8D8000CF042FBD7F8D830002B03D114
:102E18003848FFF74FFE4FE00021D7F8D80002F0FE
:102E280013F935480DF02AF8344A3549D7F8D8004F
:102E380002F024FA30480DF06FF807F174031A46CF
:102E48003049D7F8D80002F019FAD7F8D8000EF0B0
:102E580021F82D48FFF72EFE082387F88C3097F8C5
:102E6800743087F8863097F8753087F8873097F888
:102E7800773087F8883097F8783087F8893097F86E
:102E88007C3087F88A3097F87D3087F88B3007F1E7
:102E9800800319461D4801F007FA0CF0B9FAD7F873
:102EA800E0000DF0F7FFD7F8DC000DF0F3FF0CF0B1
:102EB800EDFA0023A7F8EE30B3E600BF20130108AF
:102EC8003C2E002040130108541301087413010814
:102ED80090130108A4130108C0130108E4130108A2
:102EE800EC1301081814010870140108841401086F
:102EF8008C140108B41401082C2E0020502E002038
:102F0800D8140108E8140108F0140108006400400E
:102F1800B0B5ADF5267D06AF07F5117300221A602E
:102F28005A609A60DA60002387F87F320023C7F876
:102F3800E03107F5F2736022002118460EF09CF884
:102F48000023A7F878320023A7F8DE310023C7F85A
:102F5800D83107F5E47300221A605A609A60DA6083
:102F680003200CF023FCC7F874020CF051FAC820B7
:102F78000DF0C2FFC7F870020CF088FA9F480CF0F9
:102F88007DFF9F4A9F49D7F8700200F06AFF9B486F
:102F98000CF0C2FFD7F87032C7F8D0310CF038FA0D
:102FA800D7F8743203F00103002B02D047F23053F4
:102FB80001E04FF47A7318460DF09EFF0346924ADB
:102FC80013600CF063FA904B1B68002B02D18F48FA
:102FD800FFF770FD8C4B1A68D7F8743203F00103C1
:102FE800002B02D047F2305301E04FF47A731946B0
:102FF800104601F065FDD7F8743203F00103002B89
:1030080000F086820023C7F8BC3107F5E073002280
:103018001A601A71002387F87E3210E097F87E2232
:1030280097F87E327A490A44127903F520733B44B3
:1030380003F8C42C97F87E32013387F87E32744B3C
:103048001B7B97F87E229A42E8D3714B0022DA73F1
:1030580007F5F0736F4A7049184600F002FF07F54C
:10306800DE7207F5F07107F5F073184600F0F9FE07
:1030780007F5F07107F5F073684A184600F0F1FE9D
:1030880007F5E47207F5F071654B002001F028FEA2
:103098000346A7F878320423C7F84432002387F898
:1030A8005132002387F85232042387F85032B7F898
:1030B8007832DBB287F84832B7F878321B0A9BB20D
:1030C800DBB287F84932564B1B88DBB287F84A32A5
:1030D800534B1B881B0A9BB2DBB287F84B3207F5B0
:1030E800117319464F4801F0DFF8B7F87832C82B4A
:1030F80037D10CF08DF94A4B1B8818460DF0FCFEB1
:103108000346494A1360484B1B68002B0CD14748BB
:10311800FFF7D0FCD7F870020DF0BCFE3A4B1B68E5
:1031280018460DF0B7FE41E30CF0B0F90121404814
:103138000CF09AFB3C4B1B680021184601F084FFF9
:10314800394B1B68364A1288114607F5EC72009114
:103158000021002005F08CFBD7F8D831002B16D1C0
:103168000CE03248FFF7A6FCD7F870020DF092FE8B
:10317800254B1B6818460DF08DFE17E32D48FFF709
:1031880099FC294B1B6818460DF084FE0EE30CF0E1
:103198003FF9D7F8D831053318460DF0ADFE034690
:1031A800254A13600CF072F90023C7F85C32224BF1
:1031B8001868D7F8D8111C4B1B68194A1288009256
:1031C800002205F055FBC7F85C02D7F85C3213F112
:1031D8002A0F04D0D7F85C3213F12C0F2ED11548E2
:1031E800FFF768FC104B1B6818460DF053FE124B96
:1031F8001B6818460DF04EFED8E200BF2C2E0020AA
:10320800502E0020041501084C2E0020A41301089C
:103218003C2E00201C150108EC130108301501088C
:10322800EC2E002000640040E82E0020381501082C
:103238002027002054150108F02E0020AA4B1B68F7
:1032480018460DF027FED7F8D8311C3BA74A136063
:1032580007F52073A3F5207318464FF4C8731A4670
:1032680000210DF009FF0023C7F858323B461846E5
:103278000AF056F8384680239D4A02210AF0BFF921
:103288009A4B1C689B4B1D689A4B1A68D7F8D83123
:10329800103B1344974A12680C329649096838461D
:1032A80005910492102203920293002301930023B4
:1032B80000930C232A4621460AF067FFC7F85802F4
:1032C800D7F8583213F1120F09D0D7F8583213F142
:1032D800140F04D0D7F8583213F1160F0AD1D7F8C3
:1032E80058128548FFF7E6FB824B1B6818460DF01D
:1032F800D1FD5BE23B4618460AF096FF40F22313E5
:10330800C7F84432002387F85132002387F8523235
:10331800012387F8503297F87F3287F8483207F54B
:1033280011731946754800F0BFFF00BF744BDB7B73
:10333800012BFBD1724B1B6840F223129342F5D14B
:103348006F4B0022DA736F48FFF7B4FB002387F84E
:103358005132002387F85232022387F85032634BE8
:103368001B68DBB287F84832604B1B681B0ADBB26C
:1033780087F849326448FFF79DFB07F51173194632
:103388005E4800F091FF082387F850320023A7F821
:103398007C324EE00023A7F87A3216E0554B1B68C2
:1033A800B7F87C12B7F97A220A441A44B7F97A3284
:1033B800127803F520733B4403F8382CB7F97A32B6
:1033C8009BB201339BB2A7F87A32B7F97A32072B4E
:1033D800E4DD464B1A68B7F87C32D31A072B09D8B4
:1033E800424B1B68DAB2B7F87C32DBB2D31ADBB2D5
:1033F80087F8503207F511731946404800F054FF1A
:1034080000BF3F4BDB7B012BFBD13D4B1B6840F2E0
:1034180023129342F5D13A4B0022DA73384B1B79C9
:103428001AB2374B5B791B021BB213431BB2A7F8C6
:103438007C32B7F87C222D4B1B689A42AAD92D4BB7
:103448001B6818460DF026FD3048FFF733FB0CF0DB
:1034580099F9C7F854021FE00CF094F90246D7F81E
:103468005432D31A40F6B832934215DD0423C7F814
:103478004432002387F85132002387F8523201235F
:1034880087F85032662387F8483207F511731946D2
:103498001A4800F009FF09E0194BDB7B012BDBD14F
:1034A800174B1B6840F223129342D5D1144BDB7B98
:1034B800002B15D00423C7F84432002387F8513273
:1034C800002387F85232012387F850320C4B1B79BE
:1034D80087F8483207F511731946084800F0E4FEEA
:1034E800074B0022DA7358E1E82E0020F42E002062
:1034F80000000020F02E00206C1501080064004038
:103508003C2E00208C150108A8150108C0150108DB
:10351800D7F8743203F00203002B00F03E81002339
:1035280087F86F320023C7F8A83107F5D673002251
:103538001A605A609A60DA609D4B1B795AB29C4BAC
:103548005B791B025BB213435BB287F86F32984B0F
:103558000022DA7397F86F3219469648FFF7AAFAED
:103568000BF056FF97F86F3218460DF0C5FCC7F8F8
:1035780068020BF08BFFD7F86832002B02D18E4817
:10358800FFF798FA8D48FFF795FA97F86F329BB2D4
:103598001A460621D7F8680200F064FB8848FFF74E
:1035A80089FA07F5F073874A8749184600F059FCED
:1035B80007F5F07107F5F073D7F86822184600F0A0
:1035C80050FC07F5EF7307F5E47207F5F07100207A
:1035D80001F086FB0346A7F878320323C7F8443284
:1035E800002387F85132002387F85232022387F8E4
:1035F8005032B7F87832DBB287F84832B7F8783209
:103608001B0A9BB2DBB287F8493207F511731946DA
:103618006E4800F049FEB7F87832C82B0FD0B7F8DB
:10362800783219466A48FFF745FAD7F870020DF064
:1036380031FC684B1B6818460DF02CFCB6E00723DC
:10364800C7F84432002387F85132002387F85232F2
:1036580007F5117319465D4800F026FE0023C7F8E8
:10366800943107F5CC7300221A605A609A60DA60C8
:10367800002387F8673200BF4D4B1B68072BFBD12F
:103688004B4BDB7B002BF7D0494B1B795AB2484B8D
:103698005B791B025BB213435BB287F86732444B1A
:1036A8000022DA7397F867329AB207F5CA730721CE
:1036B800184600F0D7FA0BF0ABFEB7F8DE31184623
:1036C8000DF01AFCC7F860020BF0E0FE0021D7F8F5
:1036D800600201F0B9FC07F5D4731A463E49D7F8E1
:1036E800600201F0CBFD07F5D47207F5CA731146E5
:1036F800184600F06AFB034687F87F320323C7F8B1
:103708004432002387F85132002387F852320123CC
:1037180087F8503297F87F3287F8483207F51173E7
:1037280019462A4800F0C0FD97F87F32042B10D1C3
:103738002A48FFF7BFF9D7F870020DF0ABFB254B0D
:103748001B6818460DF0A6FBD7F860020DF0A2FB27
:103758002CE02348FFF7AEF9022387F85032B7F878
:10376800DE31DBB287F84832B7F8DE311B0A9BB28C
:10377800DBB287F8493207F511731946134800F090
:1037880093FDB7F8DE3103221946D7F8600200F03E
:1037980001FAD7F860020DF07DFBD7F870020DF042
:1037A80079FB0C4B1B6818460DF074FBFFF7D1BB77
:1037B8003C2E0020D8150108EC1501080C1601084C
:1037C800281601083C160108EC13010800640040A3
:1037D800481601084C2E00206416010878160108C6
:1037E8009016010880B586B000AF3B1D00221A6014
:1037F8005A609A60DA600023FB8200233B6004234E
:103808007B6000237B740023BB7402233B7401207C
:103818000BF0CCFF02E064200CF04AF9194B186851
:103828003B460222184901F0B7FD0346012BF2D1AD
:10383800164B5B689AB23B689BB213449BB2DB435E
:10384800FB82134B1B88FA8A9A4202D9104B1B88B9
:10385800FB82FB8A002B0CD0FB8ADBB23B72FB8A13
:103868001B0A9BB2DBB27B723B1D1946094800F06C
:103878001BFD64200CF01CF9054B1B88FA8A9A4240
:10388800D6D3C4E74C2E0020AC1601084060024095
:10389800EC2E00200064004080B5FEB000AF07F5B4
:1038A800EC7300221A605A609A60DA600023A7F865
:1038B800F6310023A7F8F4310023A7F8F23107F511
:1038C800E47300221A605A609A60DA6007F5FC73A4
:1038D800A3F5FA7300221A60043324220021184643
:1038E8000DF0CAFB07F5FC73A3F5E67300221A6016
:1038F80004336022002118460DF0BEFB07F5FC7367
:10390800A3F5B47300221A6004334FF494720021B3
:1039180018460DF0B1FB01200BF048FF844B1B79D2
:103928001AB2834B5B791B021BB213431BB2A7F875
:10393800F6317F4B0022DA730BF06AFDB7F8F631E7
:103948000F3318460DF0D8FAC7F8EC010BF09EFDBE
:10395800D7F8EC31002B03D17648FFF7ABF8E5E058
:10396800B7F8F6311A460621D7F8EC0100F07AF9D3
:1039780000BF6F4B1B68062BFBD16D4BDB7B002B0D
:10398800F7D06B4B0022DA73694B1B791AB2684B7C
:103998005B791B021BB213431BB2A7F8F431B7F8CB
:1039A800F4213B1D0621184600F05CF90BF030FDB0
:1039B800B7F8F631143318460DF09EFAC7F8E80147
:1039C8000BF064FDD7F8EC31002B07D15A48FFF70C
:1039D80071F8D7F8EC010DF05DFAA7E0D7F8EC2103
:1039E8005649D7F8E80100F03CFA554AD7F8E811EB
:1039F800D7F8E80100F035FAD7F8E831C7F8C83148
:103A0800B7F8F6310B33C7F8CC314E4BC7F8D43181
:103A18000023C7F8BC3107F5E07300221A609A80CA
:103A2800B7F8F6310B331A4607F5DE731946104618
:103A380000F062FA07F5DE7207F190034249184672
:103A480000F00FFA07F1900107F190033F4A18467A
:103A580000F007FA07F19003C7F8D031394BC7F8DF
:103A6800D43107F12C033A4A3A49184600F0F9F9DB
:103A78003A1D07F12C0107F12C03184600F0F1F963
:103A88000BF0C6FC64200DF037FA0346324A136087
:103A98000BF0FCFC304B1B68002B0BD12F48FFF7B9
:103AA80009F8D7F8E8010DF0F5F9D7F8EC010DF0B1
:103AB800F1F93BE0284B1B686421184601F000F837
:103AC80007F5E47207F12C010023012001F008F941
:103AD8000346A7F8F2310523C7F8D831002387F841
:103AE800E531002387F8E631022387F8E431B7F897
:103AF800F231DBB287F8DC31B7F8F2311B0A9BB23E
:103B0800DBB287F8DD3107F5EC731946144800F08D
:103B1800CBFB114B1B6818460DF0BCF9D7F8E80130
:103B28000DF0B8F9D7F8EC010DF0B4F9C7E600BF0D
:103B38003C2E0020B0160108D81601080817010805
:103B4800141701087014010818140108181701083F
:103B58001C170108EC1301084C2E0020A4130108BF
:103B68000064004080B500AF01220521084800F03C
:103B78007EFF4FF47A700BF09BFF0022052104486A
:103B880000F075FF4FF47A700BF092FFECE700BF7E
:103B98000000024080B58AB000AFF8600B467A603A
:103BA8007B8107F1140300221A605A609A60DA6078
:103BB8007B687B61002387F82130002387F8223057
:103BC8007B89082B28BF08239BB2DBB287F82030FB
:103BD800002387F8273038E0002387F8263013E0E1
:103BE80097F8272097F8263013441A46FB681A449A
:103BF80097F82630127828333B4403F8102C97F8AE
:103C08002630013387F8263097F82630072BE7D976
:103C18007A8997F82730D31A072B03DD082387F80A
:103C2800203007E07B89DAB297F82730D31ADBB265
:103C380087F8203007F114031946094800F034FBCF
:103C480097F82730083387F8273097F827309BB242
:103C58007A899A42C0D800BF00BF2837BD4680BDC8
:103C68000064004080B487B000AFF860B9601346C4
:103C7800FB800023FB8222E000BF184B1B68BA6858
:103C88009A42FAD1154BDB7B002BF6D0134B00225E
:103C9800DA7300237B750DE07A7DFB8A591CF98263
:103CA8001946FB680B440D490A4412791A707B7D4A
:103CB80001337B75094B1B7B7A7D9A42ECD3FA8AD8
:103CC800FB889A42D8D3FB8AFA68134400221A70F8
:103CD80000BF1C37BD465DF8047B70473C2E0020B2
:103CE80080B487B000AFF860B9607A603B600023A9
:103CF800FB751DE0FB7DFA6813441B782E2B03D15E
:103D0800FB7D0133FB7519E0BB681B781A469200EE
:103D180013445B00DAB2FB7DF9680B441B7813444B
:103D2800DBB2303BDAB2BB681A70FB7D0133FB753E
:103D3800FB7DFA6813441B78002BDBD11DE0FB7D6B
:103D4800FA6813441B782E2B03D1FB7D0133FB75D6
:103D580019E07B681B781A46920013445B00DAB2BC
:103D6800FB7DF9680B441B781344DBB2303BDAB2B5
:103D78007B681A70FB7D0133FB75FB7DFA68134481
:103D88001B78002BDBD113E03B681B781A469200A6
:103D980013445B00DAB2FB7DF9680B441B781344CB
:103DA800DBB2303BDAB23B681A70FB7D0133FB753E
:103DB800FB7DFA6813441B78002BE5D100BF00BFD8
:103DC8001C37BD465DF8047B704780B584B000AFF2
:103DD800786039600023FB730023BB7300237B7377
:103DE80000233B730023FB720023BB7207F10D0312
:103DF80007F10E0207F10F017868FFF771FF07F16D
:103E08000A0307F10B0207F10C013868FFF768FF96
:103E1800FA7B3B7B9A4201D201231EE0FA7B3B7B73
:103E28009A4201D9052318E0BA7BFB7A9A4201D25B
:103E3800022312E0BA7BFB7A9A4201D905230CE0EF
:103E48007A7BBB7A9A4201D2032306E07A7BBB7A5B
:103E58009A4201D9052300E0042318461037BD46CD
:103E680080BD80B487B000AFF860B9607A60002385
:103E7800FB82FB8A0133FB82FB8ABA6813441B78F6
:103E8800002BF6D10023BB82BB8A0133BB82BB8ADD
:103E98007A6813441B78002BF6D100237B821AE042
:103EA8007A8AFB8A9A4208D27B8ABA681A447B8A41
:103EB800F9680B4412781A700AE07A8AFB8AD31AD6
:103EC8001A467B681A447B8AF9680B4412781A7080
:103ED8007B8A01337B827A8AF98ABB8A0B449A42AD
:103EE800DEDD7B8AFA68134400221A7000BF1C3793
:103EF800BD465DF8047B704780B487B000AF78603A
:103F0800396000237B617968254BA3FB0123DA081C
:103F180013469B0013445B00CA1AD2B27B69591C32
:103F2800796119463B680B443032D2B21A707B680B
:103F38001B4AA2FB0323DB087B607B68002BE2D1D2
:103F48007B693A68134400221A7000233B617B693D
:103F5800013BFB6017E03B693A6813441B78FB722E
:103F6800FB683A681A443B69591C396119463B6831
:103F78000B4412781A70FB685A1EFA601A463B689E
:103F88001344FA7A1A703A69FB689A42E3DB7B6950
:103F9800DBB218461C37BD465DF8047B704700BF8E
:103FA800CDCCCCCC80B500AF644B93F87830002BE7
:103FB80002D1A5200BF00AF9604B93F87730013352
:103FC800DAB25E4B83F877200BF0EEFF802383F3A1
:103FD80011885A4B1B78DBB20133DAB2574B1A708F
:103FE800564B5B78DBB20133DAB2544B5A70534B01
:103FF800DB6B002B03D0514BDB6B1B689847504B96
:10400800DB6803F00303002B3FD04E4A00214C48E5
:1040180000F023FA4B4B1B68012B07D14A48FEF7E7
:1040280049FD012149480BF01FFC2EE0454B1B6858
:10403800022B07D1022145480BF016FC4448FEF735
:1040480039FD22E03F4B1B68042B07D10121414871
:104058000BF00AFC4048FEF72DFD16E0394B1B68B3
:10406800032B07D13C48FEF725FD022139480BF008
:10407800FBFB0AE0334B1B68052B06D13748FEF7DC
:1040880019FD012136480BF0EFFB2C4B1B78DBB2F6
:10409800012B0CD1294B5B68002B08D0274BDB6B1D
:1040A800002B0CD0254BDB6B9B68984707E0234B14
:1040B800DB6B002B03D0214BDB6B5B6898471F4BF6
:1040C8005B78DBB2013BDAB21C4B5A701B4B1B7896
:1040D800DBB2012B16D1194B5B68002B12D0174BA2
:1040E80093F87730002B02D198200BF06FF8134B20
:1040F80093F87730013BDAB2104B83F87720FCF75E
:104108005DF90FE00D4B93F87730002B02D1982022
:104118000BF05CF8094B93F87730013BDAB2074BA8
:1041280083F87720054B1B78DBB2013BDAB2034BEF
:104138001A70002383F3118800BF80BDA8510020A6
:10414800006400403C2E002028170108CC220020E3
:104158006C170108781E0020B0170108E81701083D
:10416800742B002080B483B000AF786039607B681E
:104178001B6843F001027B681A607B681B6823F0A8
:1041880002027B681A6000BF7B685B6803F001036A
:10419800002BF9D03B681B78012B06D17B681B6884
:1041A80043F080027B681A6005E07B681B6823F097
:1041B80080027B681A603B685B78012B06D17B68BC
:1041C8001B6843F040027B681A6005E07B681B6847
:1041D80023F040027B681A603B689B78012B06D16C
:1041E8007B681B6843F020027B681A6005E07B68E7
:1041F8001B6823F020027B681A603B68DB78012B80
:1042080006D17B681B6843F010027B681A6005E0E2
:104218007B681B6823F010027B681A603B685B7937
:10422800012B06D17B681B6823F004027B681A60A7
:1042380005E07B681B6843F004027B681A603B68F2
:104248001B79012B06D17B681B6843F008027B6849
:104258001A6005E07B681B6823F008027B681A6017
:104268007B68044ADA6100BF0C37BD465DF8047B01
:10427800704700BF13001E0080B483B000AF7860A1
:104288007B681B6823F003027B681A6000BF7B68A9
:104298005B6803F00103002BF9D100BF00BF0C37A6
:1042A800BD465DF8047B704780B485B000AF786088
:1042B80039600A23FB7319E07B689B6803F080630D
:1042C800002B02D00023FB7310E07B689B6803F08F
:1042D8000063002B02D00123FB7307E07B689B6817
:1042E80003F08053002B01D00223FB73FB7B0A2BC6
:1042F800E2D0FB7B7A6818331B01134400221A6052
:104308003B685B7B002B10D1FB7B7A6818331B0161
:10431800134419683B681B685A05FB7B0A43796894
:1043280018331B010B441A6011E0FB7B7A681833C1
:104338001B0113441A683B681B68DB001A43FB7BAC
:1043480042F00402796818331B010B441A603B6879
:104358009B7B002B3CD1FB7B7A681B01134403F544
:10436800C47300221A60FB7B7A681B01134403F5AF
:10437800C67300221A603B68DB791A063B689B7992
:104388001B041A433B685B791B021A433B681B7981
:104398001946FB7B0A4379681B010B4403F5C47378
:1043A8001A603B68DB7A1A063B689B7A1B041A433F
:1043B8003B685B7A1B021A433B681B7A1946FB7BF6
:1043C8000A4379681B010B4403F5C6731A600DE0B4
:1043D800FB7B7A6818331B0113441A68FB7B42F095
:1043E8000202796818331B010B441A60FB7B7A6858
:1043F80018331B01134404331A68FB7B22F00F02A5
:10440800796818331B010B4404331A60FB7B7A6804
:1044180018331B011344043319683B681B7B03F0F2
:104428000F02FB7B0A43796818331B010B440433E2
:104438001A60FB7B7A6818331B0113441A68FB7BEC
:1044480042F00102796818331B010B441A6000BF5F
:104458001437BD465DF8047B704780B487B000AF61
:10446800F8600B467A60FB72FB7AFA681B331B0113
:1044780013441B6803F00403002B0ED17B68002251
:104488005A73FB7AFA681B331B0113441B685B0DD4
:10449800C3F30A027B681A600DE07B6801225A7335
:1044A800FB7AFA681B331B0113441B68DB08C3F350
:1044B80011027B681A60FB7AFA681B331B011344EC
:1044C8001B6803F00203002B03D17B6800229A7358
:1044D80002E07B6801229A73FB7AFA681B331B019E
:1044E800134404331B68DBB203F00F03DAB27B68B2
:1044F8001A730023FB7527E0FB7D032B10D8FB7A8A
:10450800FA681B01134403F5DC731A68FB7DDB00B2
:10451800DA40FB7DD1B27A6813440A461A7110E07A
:10452800FB7AFA681B01134403F5DE731A68FB7DF6
:10453800043BDB00DA40FB7DD1B27A6813440A46BB
:104548001A71FB7D0133FB757B681B7BFA7D9A42F0
:10455800D2D3FB7A002B06D1FB68DB6843F020023C
:10456800FB68DA6008E0FB7A012B05D1FB681B6960
:1045780043F02002FB681A617B680122DA7300BFEE
:104588001C37BD465DF8047B704780B485B000AF2A
:10459800F860B9601346FB71FB79012B06D1FB6803
:1045A8005A69BB681A43FB685A6109E0FB79002B1A
:1045B80006D1FB685A69BB68DB431A40FB685A613D
:1045C80000BF1437BD465DF8047B704780B485B0E2
:1045D80000AF786039607B68D3F8003243F001029D
:1045E8007B68C3F800223B68DB6803F01F030122E5
:1045F80002FA03F3FB607B68D3F81C22FB68DB43F9
:104608001A407B68C3F81C227B68D3F80C22FB682D
:104618001A437B68C3F80C223B681B69002B09D13D
:104628007B68D3F80422FB68DB431A407B68C3F835
:10463800042207E07B68D3F80422FB681A437B68EE
:10464800C3F804223B681B683A68D26859057B683E
:10465800483243F832103B685A683B68DB685205B9
:1046680079684833DB000B445A603B689B68002B31
:1046780009D17B68D3F81422FB68DB431A407B68B6
:10468800C3F8142207E07B68D3F81422FB681A43A6
:104698007B68C3F814223B685B69002B07D17B68F1
:1046A800D3F81C22FB681A437B68C3F81C227B687A
:1046B800D3F8003223F001027B68C3F8002200BF60
:1046C8001437BD465DF8047B704784B080B483B06E
:1046D80000AF786007F1140080E80E007B680022C4
:1046E8001A607B681A687B691A437B681A607B6862
:1046F8001A68BB691A437B681A607B681A68FB6989
:104708001A437B681A607B681A683B6A1A437B689D
:104718001A607B681A687B6A1A437B681A607B6830
:104728001A68BB6A1A437B681A607B681A68FB6A56
:104738001A437B681A607B681A683B6B1A437B686C
:104748001A607B681B6843F010027B681A6000BF20
:104758000C37BD465DF8047B04B0704780B485B063
:1047680000AFF860B9607A607B807A88FB685A602D
:10477800FB68BA689A60FB687A68DA60FB68BA68AE
:104788001A61FB681B6843F00102FB681A6000BFEE
:104798001437BD465DF8047B704780B483B000AF22
:1047A80078607B681B6823F001027B681A6000BF91
:1047B8000C37BD465DF8047B7047000080B483B0B9
:1047C80000AF03463960FB71FB79002B03D11D4A0A
:1047D8003B6813602FE0FB79012B03D1194A3B6832
:1047E800536028E0FB79022B03D1164A3B6893609B
:1047F80021E0FB79032B03D1124A3B68D3601AE00E
:10480800FB79042B03D10F4A3B68136113E0FB7952
:10481800052B03D10B4A3B6853610CE0FB79062B4F
:1048280003D1084A3B68936105E0FB79072B02D165
:10483800044A3B68D36100BF0C37BD465DF8047B72
:10484800704700BFF82E002080B500AF084B1B68EA
:1048580003F02003002B08D0064B1B689847044B35
:104868009B68034A43F02003936000BF80BD00BFEC
:1048780000600240F82E002080B500AF084B1B688E
:1048880003F40063002B08D0064B5B689847044B81
:104898009B68034A43F40063936000BF80BD00BF78
:1048A80000600240F82E002080B400AF084B1B685F
:1048B80003F40013002B05D0054B9B68044A43F40E
:1048C8000013936000BFBD465DF8047B704700BFCE
:1048D8000060024080B500AF084B1B6803F000631E
:1048E800002B08D0064BDB689847044B9B68034AAB
:1048F80043F00063936000BF80BD00BF00600240CA
:10490800F82E002080B500AF084B5B6803F0200349
:10491800002B08D0064B1B699847044BDB68034AF9
:1049280043F02003D36000BF80BD00BF0060024099
:10493800F82E002080B500AF084B5B6803F40063D5
:10494800002B08D0064B5B699847044BDB68034A89
:1049580043F40063D36000BF80BD00BF0060024025
:10496800F82E002080B500AF084B5B6803F40013F5
:10497800002B08D0064B9B699847044BDB68034A19
:1049880043F40013D36000BF80BD00BF0060024045
:10499800F82E002080B500AF084B5B6803F0006379
:1049A800002B08D0064BDB699847044BDB68034AA9
:1049B80043F00063D36000BF80BD00BF00600240C9
:1049C800F82E002082B080B483B000AF786007F181
:1049D800100080E80C000B46FB707B681A683B6986
:1049E80003F00F01FB785B0001FA03F31A437B68BD
:1049F8001A607B689A687969FB785B0001FA03F3AF
:104A08001A437B689A607B68DA68B969FB785B004F
:104A180001FA03F31A437B68DA603B6903F00F037A
:104A2800022B1DD1FB78072B0BD87B681A6A3B69D0
:104A38001909FB789B0001FA03F31A437B681A6291
:104A48000EE0FB780F2B0BD87B685A6A3B69190973
:104A5800FB78083B9B0001FA03F31A437B685A6210
:104A680000BF0C37BD465DF8047B02B0704780B4C8
:104A780083B000AF78600B46FB701346BB70BB7801
:104A8800012B09D17B689B69FA78012101FA02F2AE
:104A98001A437B689A610CE0BB78002B09D17B68CC
:104AA8009B69FA781032012101FA02F21A437B68F5
:104AB8009A6100BF0C37BD465DF8047B7047000063
:104AC80080B485B000AF78600B467B800023FB6024
:104AD8000B4A7B68136007E0094B1A68FB68591C8E
:104AE800F960134400221A707B88FA689A42F3D35B
:104AF80000BF00BF1437BD465DF8047B704700BF98
:104B0800182F002080B5CCB000AF002387F82F31D4
:104B18000023A7F82C310BE0B7F82C315A1CA7F862
:104B28002C211A4607F59873A3F598730021995418
:104B3800B7F82C31B3F5967FEED33E490420FFF742
:104B48003DFE11E03B4602223B49184600F088F83A
:104B5800384600230122394900F01EFC034687F835
:104B68002F31C82000F056FE97F82F31012BE9D1DC
:104B7800002387F82F313B4602223149184600F0BE
:104B88006FF83B4602222F49184600F069F83B4669
:104B980002222D49184600F063F838460023012206
:104BA800264900F0F9FB034687F82F3117E03B460A
:104BB80002222649184600F053F8642000F02AFE25
:104BC8003B4602222049184600F04AF8384600239E
:104BD80001221A4900F0E0FB034687F82F3197F8C5
:104BE8002F31012BE3D1002387F82F313B460222D6
:104BF8001749184600F034F83B4602221549184672
:104C080000F02EF83B4602221349184600F028F817
:104C18003B4602221149184600F022F83B46184646
:104C280000F072FC97F82F31184607F59877BD46C3
:104C380080BD00BF4955000824180108281801083C
:104C48002C1801084C180108841801089418010848
:104C5800A4180108B4180108C4180108DC180108D0
:104C680080B586B000AFF860B9601346FB710023C9
:104C7800FB82F86800F048FCFA684FF6FF731449A5
:104C88001448FFF76BFDFB8A0133FB82FB8ABA6885
:104C980013441B78002BF6D1BA68FB8A0C490E48DE
:104CA800FFF75CFD0A2000F0B5FD00BF0B4B1B7839
:104CB800DBB2012BFAD1094B00221A70FB79194695
:104CC800F86800F023FA00BF1837BD4680BD00BF62
:104CD800044C004040600240706002401C2F0020DD
:104CE80080B58CB000AFB9607A603B600346FB7357
:104CF8000023FB850023BB8500237B85002387F8E1
:104D08002930964B1B68184600F0FEFB7B68DB6871
:104D1800002B3AD0914B1B681A464FF6FF73904907
:104D28009048FFF71BFD9049904800F031FE00BF06
:104D38007B68DA68BB8D0133BB85BB8D13441B7858
:104D4800002BF5D17B68DB681A46BB8D84498848FF
:104D5800FFF704FD0A2000F05DFD00BF854B1B78BE
:104D6800DBB2012BFAD1834B00221A7082497F48AB
:104D780000F00EFE794B1B680221184600F0C6F9B8
:104D8800764B1B68184600F0BFFB7B689B68002BBE
:104D98003AD0724B1B681A464FF6FF737049714838
:104DA800FFF7DCFC7549714800F0F2FD00BF7B6835
:104DB8009A687B8D01337B857B8D13441B78002B90
:104DC800F5D17B689B681A467B8D65496848FFF773
:104DD800C5FC0A2000F01EFD00BF664B1B78DBB245
:104DE800012BFAD1634B00221A7063495F4800F027
:104DF800CFFD5A4B1B680221184600F087F9574B24
:104E08001B68184600F080FB7B681B68002B68D085
:104E1800524B1B681A464FF6FF7351495148FFF72A
:104E28009DFC5749514800F0B3FD7B685B6807F16A
:104E380014021146184600F011FB034687F8293082
:104E480007F1140297F829309BB245494848FFF703
:104E580085FC0A2000F0DEFC00BF464B1B78DBB265
:104E6800012BFAD1434B00221A7046493F4800F003
:104E78008FFD0A2000F0CEFC384B1B680221184633
:104E880000F044F9354B1B68184600F03DFB334BE6
:104E98001B681A464FF6FF7331493248FFF75EFC2C
:104EA8007B681B681A467B685B689BB22C49304854
:104EB800FFF754FC0A2000F0ADFC00BF2D4B1B7817
:104EC800DBB2012BFAD12B4B00221A70234B1B6843
:104ED8000221184600F01AF9204B1B68184600F00A
:104EE80013FB1E4B1B681A464FF6FF731C491D48DF
:104EF800FFF734FC24491D4800F04AFDFB8D0133BF
:104F0800FB85FB8DBA6813441B78002BF6D1BA6871
:104F1800FB8D13491648FFF721FC0A2000F07AFCA4
:104F280000BF144B1B78DBB2012BFAD1114B0022C6
:104F38001A7011490D4800F02BFD084B1B6802211F
:104F4800184600F0E3F8FB7B002B21D1034B1B68CC
:104F580004220E491846FFF783FE23E0182F00208D
:104F6800044C00404060024004190108004C004015
:104F7800706002401C2F00201C190108201901082C
:104F88003C1901084C19010854190108681901084D
:104F9800FB7B012B06D1294B1B68042228491846A4
:104FA800FFF75EFE3B68002B05D000F0CBF8034608
:104FB8009AB23B681A8000233B61204B186807F1BE
:104FC800100301221F4900F0E7F91C4B1A683B69DE
:104FD800013313441B78303B9BB21A4692001344AA
:104FE8001A4691001A460B4613449B00FB84134B48
:104FF8001A683B69023313441B78303B9BB21A464C
:10500800920013445B009AB2FB8C1344FB840B4B55
:105018001A683B69033313441B789AB2FB8C134418
:105028009BB2303BFB84054B1B68184600F06CFABA
:10503800FB8C18463037BD4680BD00BF182F0020B6
:105048007C1901089019010880B582B000AF78601A
:105058003960254B1B68042224491846FFF700FED7
:10506800214B18687B68224A224900F0ABF83B685C
:10507800002B34D01C4B1B68184600F045FA1A4B1D
:105088001B681A464FF6FF731B491C48FFF766FB5F
:105098001B4A0C2318491B48FFF760FB0A2000F045
:1050A800B9FB00BF184B1B78DBB2012BFAD1164BAA
:1050B80000221A7000BF0C4B1868002301220C490B
:1050C80000F06AF90346012BF5D10C48FFF765FBA0
:1050D800054B18683B68064A064900F073F800BF9C
:1050E8000837BD4680BD00BF182F0020941901085D
:1050F800A4190108AC190108044C004040600240A2
:10510800B0190108706002401C2F002080B582B0E1
:1051180000AF78600B46FB7000BFFA7800230749A0
:10512800786800F039F90346012BF6D10448FFF7F7
:1051380034FB00BF0837BD4680BD00BFAC1901086D
:105148004060024080B483B000AF00237B6000233E
:10515800FB7027E01A4B1A68FB7813441B782F2B37
:1051680014D9174B1A68FB7813441B78392B0DD8C0
:105178007A6813469B0013445B001946104B1A6863
:10518800FB7813441B780B44303B7B600C4B1A684C
:10519800FB7813441B782C2B01D100237B60FB7810
:1051A8000133FB70064B1A68FB7813441B78002BFD
:1051B800D0D17B6818460C37BD465DF8047B704734
:1051C800182F002080B58AB000AFF860B9607A6007
:1051D8003B6000237B6100233B6107F1140302223B
:1051E800B968F86800F0D8F80346012B01D000230D
:1051F80040E007F1100301227968F86800F0CCF864
:105208000346012B01D0002334E00023FB84FB8CF0
:105218000133FB84FB8CBA6813441B78002BF6D14E
:105228000023BB84BB8C0133BB84BB8C7A681344DA
:105238001B78002BF6D1FA8C7B6913443B623A69E0
:105248007B69D21AFB8CD31ABB610023FB610CE08B
:105258003B6A5A1C3A62FA681A443968FB690B447B
:1052680012781A70FB690133FB61FA69BB699A42CB
:10527800EED3012318462837BD4680BD80B588B0D7
:1052880000AFF860B9607A600023FB770023BB7732
:105298000123BB830023BB820023FB76002301226A
:1052A800B968F86800F078F80346012B01D00023AC
:1052B8006BE0FB7F0133FB77FB7FBA6813441B78F5
:1052C800002BF6D1FB681B787B2B5DD1BB8B02339F
:1052D800BB83BB8BDAB207F114032E49F86800F0E0
:1052E8005BF80023BB7716E0BB8A5A1CBB7F1344CC
:1052F8001A46FB6813441A78BB7FB9680B441B78BD
:105308009A4202D10123FB7602E00023FB7606E0F5
:10531800BB7F0133BB77BA7FFB7F9A42E4D3FB7E26
:10532800012BD3D1FB7F9AB2BB8A13449BB20233C1
:105338003B830023FB8200BF3B8B5A1C3A831A46EF
:10534800FB6813441B78222BF6D10DE03B8B5A1CCB
:105358003A831A46FB681A44FB8A591CF982194693
:105368007B680B4412781A703B8BFA6813441B78DD
:10537800222BEBD1FB8A5A1CFA821A467B6813440B
:1053880000221A70012300E0002318462037BD468A
:1053980080BD00BFC019010880B487B000AFF860B5
:1053A800B9603B601346FB710023FB750023BB7596
:1053B8000023BB8200237B8243E07B8ABB820023DD
:1053C8003B8225E0BB8AFA6813441A783B8AB9689D
:1053D8000B441B789A420BD17B8AFA6813441B78DA
:1053E800002B05D00123FB75BB8A0133BB820CE07F
:1053F800BB8AFA6813441A783B8AB9680B441B784D
:105408009A4202D00023FB7508E03B8A01333B82B5
:105418003B8ABA6813441B78002BD3D1BA7DFB7D35
:105428001344BB75BA7DFB799A4207D13B68002BC0
:1054380002D07A8A3B681A60012309E07B8A01332B
:105448007B827B8AFA6813441B78002BB5D1002332
:1054580018461C37BD465DF8047B704780B487B09A
:1054680000AF7860396000237B617968254BA3FB26
:105478000123DA0813469B0013445B00CA1AD2B210
:105488007B69591C796119463B680B443032D2B2AA
:105498001A707B681B4AA2FB0323DB087B607B68CE
:1054A800002BE2D17B693A68134400221A7000236A
:1054B8003B617B69013BFB6017E03B693A68134439
:1054C8001B78FB72FB683A681A443B69591C3961BE
:1054D80019463B680B4412781A70FB685A1EFA602A
:1054E8001A463B681344FA7A1A703A69FB689A427A
:1054F800E3DB7B69DBB218461C37BD465DF8047BED
:10550800704700BFCDCCCCCC80B485B000AF7860FC
:105518000023FB8107E0FB895A1CFA811A467B6845
:10552800134400221A70FB897A6813441B78002BF5
:10553800F1D100BF00BF1437BD465DF8047B70474A
:1055480080B400AF034B01221A7000BFBD465DF85E
:10555800047B70471C2F002080B400AF62B600BFE8
:10556800BD465DF8047B704780B483B000AF034646
:10557800FB71FB7903F01F030749FA795209D2B28C
:105588001046012202FA03F341F8203000BF0C371D
:10559800BD465DF8047B704700E100E080B483B04D
:1055A80000AF03463960FB713B68DAB20649FB7904
:1055B8001201D2B20B4483F8002300BF0C37BD465A
:1055C8005DF8047B704700BF00E100E080B400AFE5
:1055D8003A4B5B6C394A43F480435364374B1B6C3A
:1055E800364A43F080531364354BD3F88830344A35
:1055F80043F47003C2F88830304B01221A602F4BF5
:1056080000229A602D4B9B682C4A23F0847323F464
:1056180080339360294B2B4A5A60284B1B68274AD2
:1056280023F480231360254B0022DA60234B1B6888
:10563800224A43F48033136000BF204B1B6803F4F5
:105648000033002BF9D01D4B1C4A9B6893601B4B01
:105658001A4A9B689360194B9B68184A43F4A053F5
:105668009360164B184A5A60144B1B68134A43F050
:105678008073136000BF114B1B6803F00073002B8D
:10568800F9D0124B40F205721A600C4B9B680B4A1A
:1056980023F003039360094B9B68084A43F0020315
:1056A800936000BF054B9B6803F00803002BF9D0FB
:1056B80000BF00BFBD465DF8047B7047003802405C
:1056C80000ED00E010300024042D4007003C0240AB
:1056D80080B483B000AF78607B681B0A002B0BD1C5
:1056E800184B1B6B7A68D2B2012101FA02F21146FB
:1056F800144A0B4313631EE07B681B0A012B0BD172
:10570800104B1B6C7A68D2B2012101FA02F21146E1
:105718000C4A0B4313640EE07B681B0A022B0AD168
:10572800084B5B6C7A68D2B2012101FA02F2114689
:10573800044A0B43536400BF0C37BD465DF8047B35
:10574800704700BF0038024080B483B000AF034602
:105758003960FB713B68DAB20749FB7903F00F0344
:10576800043B1201D2B20B441A7600BF0C37BD4677
:105778005DF8047B704700BF00ED00E080B500AF26
:10578800074B084A5A600F214FF0FF30FFF7DCFF44
:10579800034B00229A60024B07221A6000BF80BDAB
:1057A80010E000E01FBF020080B485B000AF786051
:1057B80040F2E733FB605923BB607B681B6823F02A
:1057C80070027B681A607B681B6823F440727B68F0
:1057D8001A607B681B6823F080027B681A607B680C
:1057E800FA68DA627B68BA689A627B6801225A6151
:1057F8007B68DB6843F001027B68DA607B681B68C2
:1058080043F001027B681A6000BF1437BD465DF89B
:10581800047B704780B485B000AF78600A4B1B6882
:10582800FB607B6801337B6000BF074B1A68FB682D
:10583800D31A7A689A42F8D800BF00BF1437BD4619
:105848005DF8047B704700BF202F002080B400AFB4
:10585800074B1B680133064A13604FF080436FF013
:1058680001021A6100BFBD465DF8047B704700BFA6
:10587800202F00200000000080B584B000AF7860C1
:105888007B680022DA607B6800221A617B68DB682B
:1058980043F400527B68DA607B685B6943F400621A
:1058A8007B685A617B68DB6843F008027B68DA60D2
:1058B8007B68DB6843F004027B68DA607B68DB683E
:1058C80043F400427B68DA607B685B6943F08002DE
:1058D8007B685A617B685B6943F040027B685A6168
:1058E80040F24923FB81FB891846FBF707F802467B
:1058F8000B4616A1D1E90001FAF7B2FE02460B46A3
:10590800104619464FF000020F4BFAF77BFD02468E
:105918000B4610461946FBF75BF80346BB81BB896B
:105928000E2B05D9FA89BB891344FB810023BB815F
:10593800FB891A01BB8913431A467B689A6000BF2A
:105948001037BD4680BD00BF0000204000000000A9
:10595800804F824080B483B000AF78600B46FB7004
:1059680000BF7B681B6803F08003002BF9D0FA782E
:105978007B685A6000BF7B681B6803F04003002BFC
:10598800F9D000BF00BF0C37BD465DF8047B7047F7
:1059980080B584B000AF786039600023FB730AE0FB
:1059A800FB7B5A1CFA731A463B6813441B7819464A
:1059B8007868FFF7CFFFFB7B3A6813441B78002B0E
:1059C800EED100BF00BF1037BD4680BD80B584B0A2
:1059D80004AF00F093F800F0ACF84FF08040FFF708
:1059E800E3FE00F0C9F800F021F9FFF78BF800F0AA
:1059F8005DF90AF0D9FD09F0A5FC022302934FF4E2
:105A0800A0530193274B0093274B3222274928485C
:105A180009F09CFF022302934FF480630193254B06
:105A28000093254B3C222549254809F08FFF022386
:105A380002934FF480630193224B0093224B64221C
:105A48002249234809F082FF022302934FF480631E
:105A58000193204B0093204B3C222049204809F019
:105A680075FF022302934FF4007301931D4B0093BB
:105A78001D4B96221D491E4809F068FF1D480AF073
:105A8800A3F91D480AF0A0F90AF0C4FE03464CF633
:105A98007122934202D0FD2009F098FB0AF004FE1F
:105AA800FEE700BF780A0020192F0008C419010872
:105AB800781E002020230020ED370008D0190108A7
:105AC80020270020CC1E0020052C0008EC19010816
