:020000040801F1
:1028000000500020D14701089D450108A34501085B
:10281000BF450108DB450108E14501080000000053
:10282000000000000000000000000000E745010873
:10283000F345010800000000FF4501080D460108AE
:102840001148010811480108114801081148010800
:1028500011480108114801082946010835460108B8
:10286000414601084D4601085946010865460108E0
:1028700099460108CD46010801470108354701087E
:10288000694701089D4701081148010811480108DE
:10289000A144010811480108114801081148010824
:1028A00011480108114801081148010811480108A0
:1028B0001148010811480108114801081148010890
:1028C0001148010811480108114801081148010880
:1028D0001148010811480108114801081148010870
:1028E00011480108114801081148010800000000C2
:1028F00000000000000000000000000000000000D8
:0C29000000000000000000005FF808F17B
:1029100010B5054C237833B9044B13B10448AFF319
:1029200000800123237010BDD000002000000000B3
:102930001448010808B5034B1BB103490348AFF322
:10294000008008BD00000000D400002014480108E9
:1029500081F0004102E000BF83F0004330B54FEA50
:1029600041044FEA430594EA050F08BF90EA020FBD
:102970001FBF54EA000C55EA020C7FEA645C7FEA50
:10298000655C00F0E2804FEA5454D4EB5555B8BF73
:102990006D420CDD2C4480EA020281EA030382EAE4
:1029A000000083EA010180EA020281EA0303362D76
:1029B00088BF30BD11F0004F4FEA01314FF4801C49
:1029C0004CEA113102D0404261EB410113F0004F5B
:1029D0004FEA03334CEA133302D0524263EB430312
:1029E00094EA050F00F0A780A4F10104D5F1200EB0
:1029F0000DDB02FA0EFC22FA05F2801841F100010B
:102A000003FA0EF2801843FA05F359410EE0A5F1DE
:102A100020050EF1200E012A03FA0EFC28BF4CF00F
:102A2000020C43FA05F3C01851EBE37101F00045C5
:102A300007D54FF0000EDCF1000C7EEB00006EEBD2
:102A40000101B1F5801F1BD3B1F5001F0CD349085C
:102A50005FEA30004FEA3C0C04F101044FEA4452B3
:102A600012F5800F80F09A80BCF1004F08BF5FEA3A
:102A7000500C50F1000041EB045141EA050130BD1A
:102A80005FEA4C0C404141EB0101013C28BFB1F52C
:102A9000801FE9D291F0000F04BF01460020B1FA77
:102AA00081F308BF2033A3F10B03B3F120020CDA4A
:102AB0000C3208DD02F1140CC2F10C0201FA0CF028
:102AC00021FA02F10CE002F11402D8BFC2F1200C8D
:102AD00001FA02F120FA0CFCDCBF41EA0C01904043
:102AE000E41AA2BF01EB0451294330BD6FEA04048C
:102AF0001F3C1CDA0C340EDC04F11404C4F1200277
:102B000020FA04F001FA02F340EA030021FA04F388
:102B100045EA030130BDC4F10C04C4F1200220FADF
:102B200002F001FA04F340EA0300294630BD21FA1D
:102B300004F0294630BD94F0000F83F4801306BFE3
:102B400081F480110134013D4EE77FEA645C18BFD7
:102B50007FEA655C29D094EA050F08BF90EA020F6E
:102B600005D054EA000C04BF1946104630BD91EA66
:102B7000030F1EBF0021002030BD5FEA545C05D169
:102B80004000494128BF41F0004130BD14F58004A8
:102B90003CBF01F5801130BD01F0004545F0FE411C
:102BA00041F470014FF0000030BD7FEA645C1ABF51
:102BB000194610467FEA655C1CBF0B46024650EA88
:102BC000013406BF52EA033591EA030F41F40021B4
:102BD00030BD00BF90F0000F04BF0021704730B53A
:102BE0004FF4806404F132044FF000054FF000010F
:102BF00050E700BF90F0000F04BF0021704730B5D0
:102C00004FF4806404F1320410F0004548BF4042A4
:102C10004FF000013EE700BF42004FEAE2014FEAF9
:102C200031014FEA02701FBF12F07F4393F07F4FD4
:102C300081F06051704732F07F4208BF704793F0D7
:102C40007F4F04BF41F40021704730B54FF46074EA
:102C500001F0004521F000411CE700BF50EA0102ED
:102C600008BF704730B54FF000050AE050EA010296
:102C700008BF704730B511F0004502D5404261EB06
:102C800041014FF4806404F132045FEA915C3FF447
:102C9000D8AE4FF003025FEADC0C18BF03325FEAE4
:102CA000DC0C18BF033202EBDC02C2F1200300FA95
:102CB00003FC20FA02F001FA03FE40EA0E0021FABA
:102CC00002F11444BDE600BF70B54FF0FF0C4CF4A8
:102CD000E06C1CEA11541DBF1CEA135594EA0C0F5A
:102CE00095EA0C0F00F0DEF82C4481EA030621EA95
:102CF0004C5123EA4C5350EA013518BF52EA0335D0
:102D000041F4801143F4801338D0A0FB02CE4FF081
:102D10000005E1FB02E506F00042E0FB03E54FF0B1
:102D20000006E1FB03569CF0000F18BF4EF0010EA9
:102D3000A4F1FF04B6F5007F64F5407404D25FEAA5
:102D40004E0E6D4146EB060642EAC62141EA555158
:102D50004FEAC52040EA5E504FEACE2EB4F1FD0C9A
:102D600088BFBCF5E06F1ED8BEF1004F08BF5FEA18
:102D7000500E50F1000041EB045170BD06F00046CA
:102D800046EA010140EA020081EA0301B4EB5C0477
:102D9000C2BFD4EB0C0541EA045170BD41F480116F
:102DA0004FF0000E013C00F3AB8014F1360FDEBF94
:102DB000002001F0004170BDC4F10004203C35DA70
:102DC0000C341BDC04F11404C4F1200500FA05F3F3
:102DD00020FA04F001FA05F240EA020001F0004294
:102DE00021F0004110EBD37021FA04F642EB06010A
:102DF0005EEA430E08BF20EAD37070BDC4F10C0434
:102E0000C4F1200500FA04F320FA05F001FA04F2F7
:102E100040EA020001F0004110EBD37041F10001E3
:102E20005EEA430E08BF20EAD37070BDC4F12005EE
:102E300000FA05F24EEA020E20FA04F301FA05F256
:102E400043EA020321FA04F001F0004121FA04F2FE
:102E500020EA020000EBD3705EEA430E08BF20EACE
:102E6000D37070BD94F0000F0FD101F00046400008
:102E700041EB010111F4801F08BF013CF7D041EA8A
:102E8000060195F0000F18BF704703F0004652008E
:102E900043EB030313F4801F08BF013DF7D043EA5F
:102EA0000603704794EA0C0F0CEA135518BF95EA15
:102EB0000C0F0CD050EA410618BF52EA4306D1D19C
:102EC00081EA030101F000414FF0000070BD50EABB
:102ED000410606BF1046194652EA430619D094EA45
:102EE0000C0F02D150EA013613D195EA0C0F05D12F
:102EF00052EA03361CBF104619460AD181EA030183
:102F000001F0004141F0FE4141F470014FF000003A
:102F100070BD41F0FE4141F4780170BD70B54FF0D5
:102F2000FF0C4CF4E06C1CEA11541DBF1CEA135555
:102F300094EA0C0F95EA0C0F00F0A7F8A4EB050437
:102F400081EA030E52EA03354FEA013100F088802E
:102F50004FEA03334FF0805545EA131343EA1263F7
:102F60004FEA022245EA111545EA10654FEA0026AC
:102F70000EF000419D4208BF964244F1FD0404F565
:102F8000407402D25B084FEA3202B61A65EB0305C1
:102F90005B084FEA32024FF480104FF4002CB6EB7E
:102FA000020E75EB030E22BFB61A754640EA0C00FE
:102FB0005B084FEA3202B6EB020E75EB030E22BF3E
:102FC000B61A754640EA5C005B084FEA3202B6EB7F
:102FD000020E75EB030E22BFB61A754640EA9C003E
:102FE0005B084FEA3202B6EB020E75EB030E22BF0E
:102FF000B61A754640EADC0055EA060E18D04FEACC
:10300000051545EA16754FEA06164FEAC30343EA6B
:1030100052734FEAC2025FEA1C1CC0D111F4801F38
:103020000BD141EA00014FF000004FF0004CB6E731
:1030300011F4801F04BF01430020B4F1FD0C88BFD0
:10304000BCF5E06F3FF6AFAEB5EB030C04BFB6EBDB
:10305000020C5FEA500C50F1000041EB045170BDCE
:103060000EF0004E4EEA113114EB5C04C2BFD4EBFB
:103070000C0541EA045170BD41F480114FF0000E7F
:10308000013C90E645EA060E8DE60CEA135594EAFB
:103090000C0F08BF95EA0C0F3FF43BAF94EA0C0FFE
:1030A0000AD150EA01347FF434AF95EA0C0F7FF473
:1030B00025AF104619462CE795EA0C0F06D152EAC7
:1030C00003353FF4FDAE1046194622E750EA4106AB
:1030D00018BF52EA43067FF4C5AE50EA41047FF4BC
:1030E0000DAF52EA43057FF4EBAE12E74A0011D26E
:1030F00012F5001211D20DD56FF47873B3EB625252
:103100000ED44FEAC12343F0004343EA505323FA5D
:1031100002F070474FF00000704750EA013002D1D2
:103120004FF0FF3070474FF00000704780B400AFA1
:10313000074B5B68064A23F4C0435360044B5B684B
:10314000034A23F03003536000BFBD4680BC704784
:103150000000014080B483B000AF786039607B68C4
:103160001B6843F001027B681A607B681B6823F0D0
:1031700002027B681A6000BF7B685B6803F0010392
:10318000002BF9D03B681B78012B06D17B681B68AC
:1031900043F080027B681A6005E07B681B6823F0BF
:1031A00080027B681A603B685B78012B06D17B68E4
:1031B0001B6843F040027B681A6005E07B681B686F
:1031C00023F040027B681A603B689B78012B06D194
:1031D0007B681B6843F020027B681A6005E07B680F
:1031E0001B6823F020027B681A603B68DB78012BA8
:1031F00006D17B681B6843F010027B681A6005E00B
:103200007B681B6823F010027B681A603B685B795F
:10321000012B06D17B681B6823F004027B681A60CF
:1032200005E07B681B6843F004027B681A603B681A
:103230001B79012B06D17B681B6843F008027B6871
:103240001A6005E07B681B6823F008027B681A603F
:103250007B68034ADA6100BF0C37BD4680BC70470B
:103260000F001E0080B483B000AF78607B681B68DD
:1032700023F003027B681A6000BF7B685B6803F081
:103280000103002BF9D100BF00BF0C37BD4680BC45
:10329000704780B485B000AF786039600A23FB7353
:1032A00019E07B689B6803F08063002B02D0002349
:1032B000FB7310E07B689B6803F00063002B02D077
:1032C0000123FB7307E07B689B6803F08053002BAE
:1032D00001D00223FB73FB7B0A2BE2D0FB7B7A68D5
:1032E00018331B01134400221A603B685B7B002BE0
:1032F00010D1FB7B7A6818331B01134419683B68B3
:103300001B685A05FB7B0A43796818331B010B4481
:103310001A6011E0FB7B7A6818331B0113441A68AA
:103320003B681B68DB001A43FB7B42F004027968B0
:1033300018331B010B441A603B689B7B002B3CD16C
:10334000FB7B7A681B01134403F5C47300221A60E7
:10335000FB7B7A681B01134403F5C67300221A60D5
:103360003B68DB791A063B689B791B041A433B6870
:103370005B791B021A433B681B791946FB7B0A43A6
:1033800079681B010B4403F5C4731A603B68DB7A50
:103390001A063B689B7A1B041A433B685B7A1B0244
:1033A0001A433B681B7A1946FB7B0A4379681B0169
:1033B0000B4403F5C6731A600DE0FB7B7A68183383
:1033C0001B0113441A68FB7B42F002027968183330
:1033D0001B010B441A60FB7B7A6818331B011344F2
:1033E00004331A68FB7B22F00F02796818331B0143
:1033F0000B4404331A60FB7B7A6818331B011344B7
:10340000043319683B681B7B03F00F02FB7B0A4304
:10341000796818331B010B4404331A60FB7B7A680C
:1034200018331B0113441A68FB7B42F001027968D0
:1034300018331B010B441A6000BF1437BD4680BC13
:10344000704780B487B000AFF8600B467A60FB72BB
:10345000FB7AFA681B331B0113441B6803F0040357
:10346000002B0ED17B6800225A73FB7AFA681B335B
:103470001B0113441B685B0DC3F30A027B681A60CF
:103480000DE07B6801225A73FB7AFA681B331B013B
:1034900013441B68DB08C3F311027B681A60FB7AD4
:1034A000FA681B331B0113441B6803F00203002B53
:1034B00003D17B6800229A7302E07B6801229A7331
:1034C000FB7AFA681B331B01134404331B68DBB21D
:1034D00003F00F03DAB27B681A730023FB7527E051
:1034E000FB7D032B10D8FB7AFA681B01134403F50C
:1034F000DC731A68FB7DDB00DA40FB7DD1B27A68B1
:1035000013440A461A7110E0FB7AFA681B0113444F
:1035100003F5DE731A68FB7D043BDB00DA40FB7DBC
:10352000D1B27A6813440A461A71FB7D0133FB75E8
:103530007B681B7BFA7D9A42D2D3FB7A002B06D1A3
:10354000FB68DB6843F02002FB68DA6008E0FB7A86
:10355000012B05D1FB681B6943F02002FB681A614F
:103560007B680122DA7300BF1C37BD4680BC704700
:1035700080B485B000AFF860B9601346FB71FB7989
:10358000012B06D1FB685A69BB681A43FB685A6174
:1035900009E0FB79002B06D1FB685A69BB68DB4365
:1035A0001A40FB685A6100BF1437BD4680BC7047A3
:1035B00080B485B000AF786039607B68D3F80032A2
:1035C00043F001027B68C3F800223B68DB6803F02C
:1035D0001F03012202FA03F3FB607B68D3F81C226D
:1035E000FB68DB431A407B68C3F81C227B68D3F876
:1035F0000C22FB681A437B68C3F80C223B681B69EA
:10360000002B13D17B68D3F80422FB68DB431A40FC
:103610007B68C3F804223B681A683B68DB68520584
:1036200079684833DB000B445A6010E07B68D3F8BC
:103630000422FB681A437B68C3F804223B685B687A
:103640003A68D26859057B68483243F832103B68C3
:103650009B68002B09D17B68D3F81422FB68DB43FD
:103660001A407B68C3F8142207E07B68D3F8142261
:10367000FB681A437B68C3F814223B685B69002B24
:1036800007D17B68D3F81C22FB681A437B68C3F818
:103690001C227B68D3F8003223F001027B68C3F858
:1036A000002200BF1437BD4680BC704780B400AF15
:1036B000044B054A5A60034B044A5A6000BFBD469A
:1036C00080BC70470020024023016745AB89EFCDE5
:1036D00080B400AF044B1B69034A43F080031361BD
:1036E00000BFBD4680BC704700200240F0B587B0E7
:1036F00000AFF860B960C7E900230023FB75002321
:10370000BB7500BF254BDB6803F00103002BF9D12B
:10371000FB68012B02D10123BB7507E0FB68022B7C
:1037200002D10223BB7501E00423BB750023FB75A6
:103730002BE0FB7D5A00BB6802EB030CFB7D1901FB
:10374000D7E90023C1F12006A1F1200022FA01F4FB
:1037500003FA06F6344323FA00F0044323FA01F592
:10376000A3B21946604600F01BF800BF0B4BDB68A4
:1037700003F00103002BF9D1084B1B69074A23F022
:1037800001031361FB7D0133FB75FA7DBB7D9A421A
:10379000CFD300BF00BF1C37BD46F0BD00200240A4
:1037A00080B483B000AF78600B467B80064B1B690A
:1037B000054A43F0010313617B687A881A8000BFD1
:1037C0000C37BD4680BC70470020024080B483B0F7
:1037D00000AF78600B46FB701346BB70FB78072B7D
:1037E00015D87B681B68FA7892000C2101FA02F266
:1037F000D2431A407B681A607B681B68B978FA78F4
:10380000920001FA02F21A437B681A601AE0FB7810
:103810000F2B17D8FB78083BFB707B685B68FA7846
:1038200092000C2101FA02F2D2431A407B685A60DE
:103830007B685B68B978FA78920001FA02F21A4361
:103840007B685A6000BF0C37BD4680BC704780B4AF
:1038500083B000AF78600B46FB707B689A68FB789A
:1038600022FA03F3DBB203F00103DBB218460C3794
:10387000BD4680BC704780B483B000AF78600B4613
:10388000FB701346BB70BB78012B09D17B681B69A9
:10389000FA78012101FA02F21A437B681A610CE0FE
:1038A000BB78002B09D17B681B69FA7810320121A3
:1038B00001FA02F21A437B681A6100BF0C37BD4659
:1038C00080BC704780B400AF62B600BFBD4680BC0C
:1038D000704780B400AF72B600BFBD4680BC704771
:1038E00080B483B000AF0346FB71FB7903F01F0384
:1038F0000749FA795209D2B21046012202FA03F3BB
:1039000041F8203000BF0C37BD4680BC704700BF77
:1039100000E100E080B483B000AF0346FB71FB79A7
:1039200003F01F030749FA795209D2B21046012267
:103930009A4000F1600341F8232000BF0C37BD46D8
:1039400080BC704700E100E080B400AF384B1B68DA
:10395000374A43F010031360364B1B68354A23F493
:1039600000231360334B1B68324B00221A60314B2B
:103970005B68304B00225A602E4B00229A602D4B20
:103980001B682C4A43F00103136000BF294B1B68DE
:1039900003F00203002BF9D0264B1B68254A43F4A1
:1039A0008033136000BF234B1B6803F40033002BEC
:1039B000F9D0204B5B681F4A43F4803353601D4BA2
:1039C0001C4A5B6853601B4B5B681A4A43F4806374
:1039D0005360184B174A5B685360154B1B68144AB9
:1039E00043F002031360134B5B68124A43F4E01385
:1039F0005360104B1B680F4A43F08073136000BF85
:103A00000C4B1B6803F00073002BF9D0094B5B686B
:103A1000084A43F00203536000BF064B5B6803F0A3
:103A20000803002BF9D000BF00BFBD4680BC704723
:103A3000002002400010024080B483B000AF034673
:103A4000FB71FB791F2B0AD81B4B9B69FA7901216B
:103A500001FA02F21146184A0B43936126E0FB7902
:103A60001F2B10D9FB793F2B0DD8FB79203BFB7125
:103A7000114BDB69FA79012101FA02F211460E4A73
:103A80000B43D36112E0FB793F2B0FD9FB795F2BFE
:103A90000CD8FB79403BFB71074B5B69FA7901213C
:103AA00001FA02F21146044A0B43536100BF0C377E
:103AB000BD4680BC704700BF0010024080B483B098
:103AC00000AF0346FB71FB791F2B0BD81C4B9B6986
:103AD000FA79012101FA02F2D2431146184A0B4049
:103AE000936128E0FB791F2B11D9FB793F2B0ED86E
:103AF000FB79203BFB71124BDB69FA79012101FA5A
:103B000002F2D24311460E4A0B40D36113E0FB7917
:103B10003F2B10D9FB795F2B0DD8FB79403BFB7114
:103B2000074B5B69FA79012101FA02F2D24311468F
:103B3000034A0B40536100BF0C37BD4680BC704741
:103B40000010024080B483B000AF03463960FB71BF
:103B50003B68DAB20649FB7903F00F03043B12011C
:103B6000D2B20B441A7600BF0C37BD4680BC7047FA
:103B700000ED00E080B500AF074B084A5A600F2106
:103B80004FF0FF30FFF7DEFF034B00229A60024B3D
:103B900007221A6000BF80BD10E000E03F1901005D
:103BA00080B485B000AF78600A4B1B68FB607B680F
:103BB000BB60BB680133BB6000BF064B1A68FB6883
:103BC000D31ABA689A42F8D800BF00BF1437BD466E
:103BD00080BC70470801002080B400AF024B1B6816
:103BE0001846BD4680BC70470801002080B483B0F1
:103BF00000AF786039607B681B6823F070027B68D7
:103C00001A607B681A683B685B681A437B681A60B5
:103C10007B681B6823F440727B681A607B681A68B3
:103C20003B68DB681A437B681A607B681B6803F09B
:103C300080027B681A607B681A683B685B691A437C
:103C40007B681A603B689A687B68DA623B681A682E
:103C50007B689A623B681A697B681A637B680122F9
:103C60005A6100BF0C37BD4680BC704780B483B03A
:103C700000AF786039607B689B6823F077027B68CF
:103C80009A607B689B6823F47F427B689A603B68FC
:103C90001B68B3F5005F4FD0B3F5005F00F20481FD
:103CA000B3F5805F00F00281B3F5805F00F2FC8025
:103CB000702B26D0702B00F2F780602B00F08680EE
:103CC000602B00F2F180502B51D0502B00F2EC8091
:103CD000402B00F0AA80402B00F2E680302B00F051
:103CE000D380302B00F2E080202B00F0CD80202B01
:103CF00000F2DA80002B00F0C780102B00F0C480A7
:103D0000D2E07B689B6823F47F427B689A607B6883
:103D10009A683B6899683B6858683B68DB681B0297
:103D200003430B431A437B689A607B689B6843F0AC
:103D300077027B689A60BAE07B689B6823F47F42D5
:103D40007B689A607B689A683B6899683B685868AA
:103D50003B68DB681B0203430B431A437B689A6092
:103D60007B689B6843F480427B689A609FE07B6835
:103D70001B6A23F010027B681A627B689B6923F43C
:103D800070427B689A617B689A693B68DB681B03B9
:103D90001A437B689A617B681B6A23F0A0027B68E8
:103DA0001A627B681A6A3B685B681B011A437B686E
:103DB0001A627B689B6823F070027B689A607B685C
:103DC0009B6843F057027B689A6070E07B681B6ACF
:103DD00023F010027B681A627B689B6923F47042AF
:103DE0007B689A617B689A693B68DB681B031A43AE
:103DF0007B689A617B681B6A23F0A0027B681A6269
:103E00007B681A6A3B685B681B011A437B681A620D
:103E10007B689B6823F070027B689A607B689B6874
:103E200043F067027B689A6041E07B681B6A23F07D
:103E300010027B681A627B689B6923F470427B687E
:103E40009A617B689A693B68DB681B031A437B684D
:103E50009A617B681B6A23F0A0027B681A627B6808
:103E60001A6A3B685B681B011A437B681A627B68AD
:103E70009B6823F070027B689A607B689B6843F0C4
:103E800057027B689A6012E07B689B6823F070029F
:103E90007B689A607B689A683B681B68134343F0B1
:103EA00007027B689A6002E000BF00E000BF00BF2D
:103EB0000C37BD4680BC704780B485B000AFF86059
:103EC000B9607A60FB685B6823F07002FB685A6037
:103ED000FB685A68BB681A43FB685A60FB689B68BA
:103EE00023F08002FB689A60FB689A687B681A433B
:103EF000FB689A6000BF1437BD4680BC704780B431
:103F000083B000AF78607B681B6843F001027B6878
:103F10001A6000BF0C37BD4680BC704780B483B0C8
:103F200000AF78607B685B6A18460C37BD4680BC82
:103F3000704780B483B000AF786039607B683A68BE
:103F40005A6200BF0C37BD4680BC704700000000BD
:103F500090B585B000AF0023FB600023BB60002359
:103F60007B60012209213448FFF785FC002133489A
:103F7000FFF7DFFF00BF3148FFF7D0FF0346092BF3
:103F8000F9D9002209212C48FFF775FCFFF724FE20
:103F9000786000BF08212848FFF759FC0346002B32
:103FA00007D17B6803F10A04FFF716FE03469C4223
:103FB000F0D82248FFF7B2FFF860FFF70DFE7860F7
:103FC00000BF08211C48FFF742FC0346002B07D026
:103FD0007B6803F13204FFF7FFFD03469C42F0D8F3
:103FE0001648FFF79BFFB860BA68FB68D31A1846FB
:103FF000FEF7F0FD0EA3D3E90023FEF765FE0246AF
:104000000B46104619464FF000024FF08043FEF772
:1040100085FF02460B4610461946FFF767F8034630
:104020009BB218461437BD4690BD00BFAFF3008069
:10403000D66EBBD05CA7A13F00080140002C014018
:1040400080B596B000AFFFF731FB984A4FF0000300
:1040500097490220FFF74AFBFFF73AFBFFF774FC92
:10406000944B4FF4A0429A60FFF72CFC1420FFF70A
:1040700037FCFFF77FFD0020FFF7DEFC0220FFF793
:10408000DBFC0420FFF7D8FC3920FFF7D5FC0B2020
:10409000FFF7D2FCFFF74AF803220D218648FFF70D
:1040A00095FB08220B218548FFF790FB0B220C2182
:1040B0008248FFF78BFB032209218048FFF786FB2C
:1040C000082208217D48FFF781FB03220A217B4853
:1040D000FFF77CFB07F1500300221A609A8007F17A
:1040E000500319467648FFF735F87548FFF7BAF8D8
:1040F0000023FB6401237B6400233B640723BB6331
:104100000723FB630123BB6407F1380319466C489E
:10411000FFF74EFA0023FB6402237B6400233B6419
:1041200040F22313BB6340F22313FB630123BB6400
:1041300007F1380319466248FFF73AFA01220221D3
:104140005F48FFF715FA0023FB6403237B64002319
:104150003B641623BB631623FB630123BB6407F197
:10416000380319465648FFF723FA01220221544822
:10417000FFF7FEF907F1280300221A605A609A60DF
:10418000DA6007F1100300221A605A609A60DA6060
:104190001A615A6147233B6100237B614FF6FF732D
:1041A000BB610023FB6100233B6200237B6207F1BC
:1041B000100319464348FFF719FD4FF48053BB62C3
:1041C00007F1280319463F48FFF750FD0022002160
:1041D0003C48FFF771FE3B48FFF791FE00220921A2
:1041E0003648FFF748FBFFF7B3FE03461A46364B47
:1041F0001A80354B1B88272B94BF01230023DAB28A
:10420000314B1B88022B8CBF01230023DBB21340F0
:10421000DBB2002B1DD001220A212848FFF72BFB1F
:10422000294B1B881A4613469B0013445B00184613
:10423000FFF7B6FC00220A212048FFF71CFB224BA7
:104240001B881A4613469B0013445B001846FFF771
:10425000A7FC1E4B1B78012B1ED11C4B00221A7091
:104260003B4600221A605A609A60DA6006233B607F
:1042700000237B730023BB7302233B73CE233B716C
:1042800000237B713B4619460D48FFF702F80622D2
:10429000CE210F4800F020F80E4B1B78002BA2D047
:1042A0000C4B00221A7000F0D5F89CE7002801089A
:1042B0000440000800ED00E000100140000801404B
:1042C00000640040002C01400C010020300100205F
:1042D000000000203101002080B58AB000AFF860F6
:1042E0000B467A607B8107F1140300221A605A6042
:1042F0009A60DA607B687B61002387F821300023B5
:1043000087F822307B89082B28BF08239BB2DBB2B9
:1043100087F82030002387F8273038E0002387F81B
:10432000263013E097F8272097F8263013441A46D2
:10433000FB681A4497F82630127828333B4403F878
:10434000102C97F82630013387F8263097F826305E
:10435000072BE7D97A8997F82730D31A072B03DD83
:10436000082387F8203007E07B89DAB297F82730F6
:10437000D31ADBB287F8203007F114031946094835
:10438000FEF787FF97F82730083387F8273097F82C
:1043900027309BB27A899A42C0D800BF00BF283725
:1043A000BD4680BD0064004080B500AF1A4B5B681D
:1043B000194A23F00303536000BF174B5B6803F0F7
:1043C0000C03002BF9D1144B1B68134A23F08073A4
:1043D0001360114B1B68104A23F4803313600F4B9A
:1043E00000221A600D4B00225A600C4B00229A608A
:1043F0000020FFF763FB0420FFF760FB0220FFF7BC
:104400005DFB3920FFF75AFB0B20FFF757FBFFF747
:1044100060FA00BF80BD00BF0010024010E000E065
:1044200080B584B000AF78607B6804331B68FB60A4
:10443000074A7B6803F1784393607B681B6883F3CA
:104440000888FB68984700BF1037BD4680BD00BF95
:1044500000ED00E0B0B500AF0F4B1B79042B18D076
:10446000FFF7A2FFFFF722F90B4B1B791B0243F06A
:10447000010300221C46154622462B46074902200E
:10448000FFF734F9FFF724F94FF00060FFF7C8FF9A
:1044900000E000BFB0BD00BF1001002000400008D8
:1044A00080B500AF374BDB6803F00303002B04D06B
:1044B000354A00213348FEF7C4FF334B1B68072BF6
:1044C00035D1314BDB7B012B31D100220A212F4822
:1044D000FFF7D1F92E4B07221A602D4B00225A7399
:1044E0002B4B00229A732A4B02221A73284B052267
:1044F0001A71274B00225A7125492248FEF7C9FE3E
:10450000234B05221A733222214B1A712E22204B83
:104510005A7130221E4B9A712E221D4BDA713022B5
:104520001B4B1A721A491748FEF7B3FE27E0164BC9
:104530001B6840F22312934207D1134BDB7B012B04
:1045400003D1144B01221A7019E00F4B1B68162B74
:1045500015D101231A460C4B1B7919460A4B5B797E
:104560001B020B439A420AD1074BDB7B012B06D17E
:10457000094B01221A70044B0022DA73FFE700BFD7
:1045800080BD00BF00640040100100200008014011
:1045900020010020310100203001002080B400AF54
:1045A000FEE780B483B000AF0023FB71FB79002BE2
:1045B000FCD000BF00BF0C37BD4680BC704780B444
:1045C00083B000AF0023FB71FB79002BFCD000BF50
:1045D00000BF0C37BD4680BC704780B400AFFEE71B
:1045E00080B400AFFEE780B400AF00BFBD4680BC22
:1045F000704780B400AF00BFBD4680BC704780B438
:1046000000AF00BFBD4680BC7047000080B400AF63
:10461000044B1B680133034A136000BFBD4680BCD6
:10462000704700BF0801002080B400AF00BFBD4646
:1046300080BC704780B400AF00BFBD4680BC7047EF
:1046400080B400AF00BFBD4680BC704780B400AFEF
:1046500000BFBD4680BC704780B400AF00BFBD4600
:1046600080BC704780B500AF094B1B6803F00203A4
:10467000002B02D0074B1B689847054B5B68044A28
:1046800043F0020353600B20FFF744F900BF80BDE5
:1046900000000240EC00002080B500AF094B1B6811
:1046A00003F02003002B02D0074B5B689847054BB3
:1046B0005B68044A43F0200353600C20FFF72AF99B
:1046C00000BF80BD00000240EC00002080B500AFBC
:1046D000094B1B6803F40073002B02D0074B9B6847
:1046E0009847054B5B68044A43F4007353600D2000
:1046F000FFF710F900BF80BD00000240EC00002071
:1047000080B500AF094B1B6803F40053002B02D0A7
:10471000074BDB689847054B5B68044A43F400533A
:1047200053600E20FFF7F6F800BF80BD0000024086
:10473000EC00002080B500AF094B1B6803F4003388
:10474000002B02D0074B1B699847054B5B68044A56
:1047500043F4003353600F20FFF7DCF800BF80BD47
:1047600000000240EC00002080B500AF094B1B6840
:1047700003F40013002B02D0074B5B699847054BED
:104780005B68044A43F4001353601020FFF7C2F83B
:1047900000BF80BD00000240EC00002080B500AFEB
:1047A000094B1B6803F00073002B02D0074B9B6979
:1047B0009847054B5B68044A43F00073536011202F
:1047C000FFF7A8F800BF80BD00000240EC00002009
:1047D0000A480B490B4A002302E0D458C450043362
:1047E000C4188C42F9D3084A084C002301E0136036
:1047F0000432A242FBD3FFF723FC704700000020E5
:10480000D000002034480108D000002034010020EE
:10481000FEE70000F8B500BFF8BC08BC9E46704734
:0C482000F8B500BFF8BC08BC9E4670470D
:04482C003529010821
:044830001129010841
:104834004E756D62657209097C0950494E4139090A
:10484400097C0950494E413809097C094D65617359
:10485400757265642044697374616E63650D0A3111
:10486400090909300909093109090932300D0A32E7
:10487400090909310909093009090931320D0A33D5
:10488400090909300909093109090932330D0A34C2
:10489400090909310909093009090932340D0A35B0
:1048A400090909310909093109090934330D0A369D
:1048B400090909300909093109090931310D0A3792
:1048C400090909310909093009090934330D0A387C
:1048D400090909300909093109090931320D0A396F
:1048E400090909300909093109090933320D0A3165
:1048F400300909093009090930090909343300006C
:04000005080147D1D6
:00000001FF
