:020000040800F2
:100000000050002001180008CD150008D315000885
:10001000EF1500080B16000811160008000000007C
:10002000000000000000000000000000171600089B
:1000300023160008000000002F1600083D160008D7
:10004000411800084118000841180008411800082C
:1000500041180008411800085916000865160008E4
:10006000711600087D16000889160008951600080C
:10007000C9160008FD1600083117000865170008AA
:1000800099170008CD17000841180008411800080A
:1000900035060008411800084118000841180008FA
:1000A00041180008411800084118000841180008CC
:1000B00041180008411800084118000841180008BC
:1000C00041180008411800084118000841180008AC
:1000D000411800084118000841180008411800089C
:1000E00041180008411800084118000800000000ED
:1000F0000000000000000000000000000000000000
:0C01000000000000000000005FF808F1A3
:10010C0010B5054C237833B9044B13B10448AFF345
:10011C0000800123237010BD64000020000000004B
:10012C00B01A000808B5034B1BB103490348AFF3E1
:10013C00008008BD0000000068000020B01A000814
:10014C0080B400AF074B5B68064A23F4C04353608E
:10015C00044B5B68034A23F03003536000BFBD4679
:10016C0080BC70470000014080B500AF0B4B1B6892
:10017C00DBB2012B09D100F015F800F01DFA084B89
:10018C001B68184600F0FEF906E000F015FA044B67
:10019C001B68184600F0F6F900BF80BD004000084F
:1001AC00044000082DE9B04F92B002AFA74B1B687A
:1001BC001B0A87F832300023FB8697F83230032B6A
:1001CC0009D14FF4FA7001F037FB0346BB63BB6BEC
:1001DC00002B0AD172E14FF4105001F02DFB0346B5
:1001EC00FB63FB6B002B00F06081994B40F22312F8
:1001FC001A60974B00225A73954B00229A73944BBA
:10020C0002221A739249934800F0C1FA904B0222D1
:10021C001A7300BF904BDB7B012BFBD18E4B1B6801
:10022C0040F223129342F5D18B4B0022DA738A4BA6
:10023C001B791AB2884B5B791B021BB213431BB29E
:10024C003B860023BB8666E000BF834BDB7B012B28
:10025C00FBD1814B1B6840F223129342F5D17E4BAC
:10026C000022DA73002387F833303DE097F8323000
:10027C00032B0DD197F83320B98E97F833300B44FC
:10028C001946BB6B0B4474490A4412791A7026E068
:10029C00BB8EDB089BB2DB00FA6B1344D3E9000185
:1002AC004FF000024FF000030B0243EA106302020E
:1002BC0097F83310C1F10701674801440979C9B2B5
:1002CC0000200C460546B98EC90889B2C900F86BE6
:1002DC00014442EA040843EA0509C1E9008997F898
:1002EC003330013387F833305B4B1B7B97F833206B
:1002FC009A42BBD3BB8E0833BB86BB8EDAB2544B4F
:10030C001A71BB8E1B0A9BB2DAB2514B5A7150490F
:10031C00504800F03CFABA8E3B8E9A4294D997F82A
:10032C003230032B53D142F2981001F085FA034678
:10033C00FB62FB6A002B00F0BA800023BB62474BC8
:10034C001B687B62454B1B68454A934202D1454B67
:10035C001B6801E0444B1B683B623B8E1A46F96AF2
:10036C00B86B01F06EF80346BB62B86B01F06CFA27
:10037C00BB6AB3F1FF3F00F09C80BB6A1946F86A78
:10038C0000F03CFF0346FB86FB8E184601F054FA46
:10039C000346FB61FB69002B00F08D80396ABA6A59
:1003AC00FB8E0193FB6900931346FA6A786A00F09E
:1003BC0041FFF86A01F048FAFB8EDB089BB2194644
:1003CC00F86900F085F8F86901F03EFA06E03B8E1A
:1003DC00DB089BB21946F86B00F07AF8234B1B78BC
:1003EC00002B6AD000F0E0FB1C4B1B68BB61174B69
:1003FC003B6101237B6107F10C03184600F0F4FB11
:10040C004FF002024FF000031049022000F06EFC86
:10041C00BB69134A93422DD1154A4FF000030F4983
:10042C00022000F063FC97F83230032B01D1FB8ED5
:10043C0000E03B8E9BB200223B607A60D7E9002340
:10044C000949022000F052FC2CE000BF00400008DB
:10045C008000002000640040900000200440000850
:10046C0000500008084000080C400008A0000020C4
:10047C0000280108134A4FF000031349022000F032
:10048C0035FC97F83230032B01D1FB8E00E03B8E0C
:10049C009BB200229A46934652465B460B49022079
:1004AC0000F024FC00F092FB08E000BF06E000BF67
:1004BC0004E000BF02E000BF00E000BF4037BD46D3
:1004CC00BDE8B08F00500008044000080840000848
:1004DC0080B588B000AF78600B467B8000F064FB81
:1004EC000023FB601D4B1B681D4A934202D11D4B20
:1004FC003B6109E0194B1B681A4A934202D1184B15
:10050C003B6101E0164B3B6136237B6107F10C0329
:10051C00184600F069FB3B69BB610023FB610FE0EF
:10052C00FB69DA00BB69D118FB69DB007A681344FC
:10053C00D3E90023032000F0D9FBFB690133FB61F5
:10054C007B88FA699A42EBD900F040FB064B0122FA
:10055C001A7000BF2037BD4680BD00BF04400008A4
:10056C000050000800280108A000002080B483B0CF
:10057C0000AF78607B6883F3088800BF0C37BD46FA
:10058C0080BC704780B584B000AF78607B68043362
:10059C001B68FB60074A7B6803F1784393607B68B8
:1005AC001B681846FFF7E2FFFB68984700BF10373F
:1005BC00BD4680BD00ED00E080B500AF184B5B6818
:1005CC00174A23F00303536000BF154B5B6803F01D
:1005DC000C03002BF9D1124B1B68114A23F08073CA
:1005EC0013600F4B1B680E4A23F4803313600D4BC2
:1005FC0000221A600B4B00225A600A4B00229A60B0
:10060C00002000F021FD042000F01EFD022000F06F
:10061C001BFD392000F018FD00F020FC00BF80BD50
:10062C000010024010E000E080B500AF064BDB6824
:10063C0003F00303002B04D0044A0021024800F00D
:10064C007EF900BF80BD00BF006400409000002018
:10065C0080B483B000AF786039607B681B6843F06E
:10066C0001027B681A607B681B6823F002027B68BE
:10067C001A6000BF7B685B6803F00103002BF9D0A4
:10068C003B681B78012B06D17B681B6843F080020A
:10069C007B681A6005E07B681B6823F080027B682E
:1006AC001A603B685B78012B06D17B681B6843F0B2
:1006BC0040027B681A6005E07B681B6823F04002EF
:1006CC007B681A603B689B78012B06D17B681B68A2
:1006DC0043F020027B681A6005E07B681B6823F0FE
:1006EC0020027B681A603B68DB78012B06D17B68A3
:1006FC001B6843F010027B681A6005E07B681B687E
:10070C0023F010027B681A603B685B79012B06D1E1
:10071C007B681B6823F004027B681A6005E07B6829
:10072C001B6843F004027B681A603B681B79012B41
:10073C0006D17B681B6843F008027B681A6005E0F1
:10074C007B681B6823F008027B681A607B68034A8D
:10075C00DA6100BF0C37BD4680BC70470F001E002D
:10076C0080B483B000AF78607B681B6823F0030211
:10077C007B681A6000BF7B685B6803F00103002B89
:10078C00F9D100BF00BF0C37BD4680BC704780B4A8
:10079C0085B000AF786039600A23FB7319E07B6881
:1007AC009B6803F08063002B02D00023FB7310E0E6
:1007BC007B689B6803F00063002B02D00123FB7362
:1007CC0007E07B689B6803F08053002B01D0022369
:1007DC00FB73FB7B0A2BE2D0FB7B7A6818331B0183
:1007EC00134400221A603B685B7B002B10D1FB7B0F
:1007FC007A6818331B01134419683B681B685A0547
:10080C00FB7B0A43796818331B010B441A6011E017
:10081C00FB7B7A6818331B0113441A683B681B680E
:10082C00DB001A43FB7B42F00402796818331B018E
:10083C000B441A603B689B7B002B3CD1FB7B7A689A
:10084C001B01134403F5C47300221A60FB7B7A6806
:10085C001B01134403F5C67300221A603B68DB7955
:10086C001A063B689B791B041A433B685B791B0295
:10087C001A433B681B791946FB7B0A4379681B01B9
:10088C000B4403F5C4731A603B68DB7A1A063B68A9
:10089C009B7A1B041A433B685B7A1B021A433B6826
:1008AC001B7A1946FB7B0A4379681B010B4403F541
:1008BC00C6731A600DE0FB7B7A6818331B01134476
:1008CC001A68FB7B42F00202796818331B010B4457
:1008DC001A60FB7B7A6818331B01134404331A68C3
:1008EC00FB7B22F00F02796818331B010B44043395
:1008FC001A60FB7B7A6818331B01134404331968A4
:10090C003B681B7B03F00F02FB7B0A4379681833AF
:10091C001B010B4404331A60FB7B7A6818331B01F0
:10092C0013441A68FB7B42F00102796818331B01EF
:10093C000B441A6000BF1437BD4680BC704780B4AE
:10094C0087B000AFF8600B467A60FB72FB7AFA68EE
:10095C001B331B0113441B6803F00403002B0ED143
:10096C007B6800225A73FB7AFA681B331B01134411
:10097C001B685B0DC3F30A027B681A600DE07B6891
:10098C0001225A73FB7AFA681B331B0113441B6850
:10099C00DB08C3F311027B681A60FB7AFA681B331D
:1009AC001B0113441B6803F00203002B03D17B686B
:1009BC0000229A7302E07B6801229A73FB7AFA6830
:1009CC001B331B01134404331B68DBB203F00F030E
:1009DC00DAB27B681A730023FB7527E0FB7D032BCF
:1009EC0010D8FB7AFA681B01134403F5DC731A6800
:1009FC00FB7DDB00DA40FB7DD1B27A6813440A46FA
:100A0C001A7110E0FB7AFA681B01134403F5DE73CC
:100A1C001A68FB7D043BDB00DA40FB7DD1B27A68BF
:100A2C0013440A461A71FB7D0133FB757B681B7BF3
:100A3C00FA7D9A42D2D3FB7A002B06D1FB68DB6895
:100A4C0043F02002FB68DA6008E0FB7A012B05D149
:100A5C00FB681B6943F02002FB681A617B6801226A
:100A6C00DA7300BF1C37BD4680BC704780B485B0BC
:100A7C0000AFF860B9601346FB71FB79012B06D10E
:100A8C00FB685A69BB681A43FB685A6109E0FB7939
:100A9C00002B06D1FB685A69BB68DB431A40FB6824
:100AAC005A6100BF1437BD4680BC704780B485B016
:100ABC0000AF786039607B68D3F8003243F00102F4
:100ACC007B68C3F800223B68DB6803F01F0301223C
:100ADC0002FA03F3FB607B68D3F81C22FB68DB4350
:100AEC001A407B68C3F81C227B68D3F80C22FB6885
:100AFC001A437B68C3F80C223B681B69002B13D18B
:100B0C007B68D3F80422FB68DB431A407B68C3F88C
:100B1C0004223B681A683B68DB68520579684833E5
:100B2C00DB000B445A6010E07B68D3F80422FB68AE
:100B3C001A437B68C3F804223B685B683A68D26846
:100B4C0059057B68483243F832103B689B68002B90
:100B5C0009D17B68D3F81422FB68DB431A407B680D
:100B6C00C3F8142207E07B68D3F81422FB681A43FD
:100B7C007B68C3F814223B685B69002B07D17B6848
:100B8C00D3F81C22FB681A437B68C3F81C227B68D1
:100B9C00D3F8003223F001027B68C3F8002200BFB7
:100BAC001437BD4680BC704780B400AF044B054A77
:100BBC005A60034B044A5A6000BFBD4680BC704764
:100BCC000020024023016745AB89EFCD80B400AF14
:100BDC00044B1B69034A43F08003136100BFBD46FD
:100BEC0080BC70470020024080B584B000AF7860B4
:100BFC000023FB607B681B68022B08D100F028F8EF
:100C0C00124B1B69114A23F00403136119E07B6832
:100C1C005B68FB600CE0F86800F03EF80B4B1B695E
:100C2C000A4A23F002031361FB6803F58063FB603F
:100C3C007B689B689A027B685B681344FA689A42EB
:100C4C00E9D300BF1037BD4680BD00BF0020024075
:100C5C0080B400AF00BF0F4BDB6803F00103002B27
:100C6C00F9D10C4B1B690B4A43F004031361094B7C
:100C7C001B69084A43F04003136100BF054BDB6856
:100C8C0003F00103002BF9D100BF00BFBD4680BCAF
:100C9C00704700BF0020024080B483B000AF786082
:100CAC0000BF114BDB6803F00103002BF9D10E4B95
:100CBC001B690D4A43F0020313610B4A7B685361B5
:100CCC00094B1B69084A43F04003136100BF064BF4
:100CDC00DB6803F00103002BF9D100BF00BF0C3718
:100CEC00BD4680BC704700BF00200240F0B587B005
:100CFC0000AFF860B960C7E900230023FB7500233F
:100D0C00BB7500BF254BDB6803F00103002BF9D149
:100D1C00FB68012B02D10123BB7507E0FB68022B9A
:100D2C0002D10223BB7501E00423BB750023FB75C4
:100D3C002BE0FB7D5A00BB6802EB030CFB7D190119
:100D4C00D7E90023C1F12006A1F1200022FA01F419
:100D5C0003FA06F6344323FA00F0044323FA01F5B0
:100D6C00A3B21946604600F01BF800BF0B4BDB68C2
:100D7C0003F00103002BF9D1084B1B69074A23F040
:100D8C0001031361FB7D0133FB75FA7DBB7D9A4238
:100D9C00CFD300BF00BF1C37BD46F0BD00200240C2
:100DAC0080B483B000AF78600B467B80064B1B6928
:100DBC00054A43F0010313617B687A881A8000BFEF
:100DCC000C37BD4680BC70470020024080B483B015
:100DDC0000AF78600B46FB701346BB70FB78072B9B
:100DEC0015D87B681B68FA7892000C2101FA02F284
:100DFC00D2431A407B681A607B681B68B978FA7812
:100E0C00920001FA02F21A437B681A601AE0FB782E
:100E1C000F2B17D8FB78083BFB707B685B68FA7864
:100E2C0092000C2101FA02F2D2431A407B685A60FC
:100E3C007B685B68B978FA78920001FA02F21A437F
:100E4C007B685A6000BF0C37BD4680BC704780B4CD
:100E5C0000AF62B600BFBD4680BC704780B400AF27
:100E6C0072B600BFBD4680BC7047000080B483B032
:100E7C0000AF0346FB71FB7903F01F030749FA79B6
:100E8C005209D2B21046012202FA03F341F8203083
:100E9C0000BF0C37BD4680BC704700BF00E100E0CE
:100EAC0080B483B000AF0346FB71FB7903F01F03E2
:100EBC000749FA795209D2B2104601229A4000F140
:100ECC00600341F8232000BF0C37BD4680BC70473F
:100EDC0000E100E080B400AF384B1B68374A43F0A8
:100EEC0010031360364B1B68354A23F40023136040
:100EFC00334B1B68324B00221A60314B5B68304B12
:100F0C0000225A602E4B00229A602D4B1B682C4AF3
:100F1C0043F00103136000BF294B1B6803F002036D
:100F2C00002BF9D0264B1B68254A43F48033136001
:100F3C0000BF234B1B6803F40033002BF9D0204B6C
:100F4C005B681F4A43F4803353601D4B1C4A5B683B
:100F5C0053601B4B5B681A4A43F480635360184B15
:100F6C00174A5B685360154B1B68144A43F0020325
:100F7C001360134B5B68124A43F4E0135360104B3D
:100F8C001B680F4A43F08073136000BF0C4B1B6847
:100F9C0003F00073002BF9D0094B5B68084A43F04F
:100FAC000203536000BF064B5B6803F00803002B81
:100FBC00F9D000BF00BFBD4680BC70470020024086
:100FCC000010024080B483B000AF0346FB71FB7984
:100FDC001F2B0AD81B4B9B69FA79012101FA02F2EB
:100FEC001146184A0B43936126E0FB791F2B10D94D
:100FFC00FB793F2B0DD8FB79203BFB71114BDB6947
:10100C00FA79012101FA02F211460E4A0B43D3611F
:10101C0012E0FB793F2B0FD9FB795F2B0CD8FB79B6
:10102C00403BFB71074B5B69FA79012101FA02F233
:10103C001146044A0B43536100BF0C37BD4680BCBC
:10104C00704700BF0010024080B483B000AF03466D
:10105C00FB71FB791F2B0BD81C4B9B69FA79012177
:10106C0001FA02F2D2431146184A0B40936128E070
:10107C00FB791F2B11D9FB793F2B0ED8FB79203B29
:10108C00FB71124BDB69FA79012101FA02F2D243AE
:10109C0011460E4A0B40D36113E0FB793F2B10D95C
:1010AC00FB795F2B0DD8FB79403BFB71074B5B69E0
:1010BC00FA79012101FA02F2D2431146034A0B409C
:1010CC00536100BF0C37BD4680BC70470010024016
:1010DC0080B485B000AF78607B6807331B7803F071
:1010EC007F03FB60FB681B02FB607B6806331B788D
:1010FC001A46FB681344FB60FB681B02FB607B68B1
:10110C0005331B781A46FB681344FB60FB681B0213
:10111C00FB607B6804331B781A46FB681344FB6046
:10112C00FB681B02FB607B6803331B781A46FB6869
:10113C001344FB60FB681B02FB607B6802331B786B
:10114C001A46FB681344FB60FB681B02FB607B6860
:10115C0001331B781A46FB681344FB60FB681B02C7
:10116C00FB607B681B781A46FB681344FB607B684A
:10117C0007331B785BB2002B02DAFB685B42FB6027
:10118C00FB6818461437BD4680BC704780B586B0E6
:10119C0000AF786039603B681F2B01DC002327E02F
:1011AC0008221549786800F057FB0346002B01D044
:1011BC0000231DE07B6808331846FFF789FF786130
:1011CC007B6810331846FFF783FF38617B68183350
:1011DC001846FFF77DFFF8607B69002B05DB3B6948
:1011EC00002B02DBFB68002B01DA002300E001235B
:1011FC0018461837BD4680BDC81A000880B582B0A5
:10120C0000AF7860396039687868FFF7BFFF034634
:10121C0083F00103DBB2002B02D04FF0FF3305E06B
:10122C007B6818331846FFF753FF034618460837F8
:10123C00BD4680BD80B590B000AFF860B9607A60F3
:10124C003B60FB68002B05D07B68002B02D0BB6C8D
:10125C00002B02D14FF0FF33C9E0BB68002B05DB3C
:10126C003B68002B02DBFB6C002B02DA4FF0FF33E8
:10127C00BDE039687868FFF789FF034683F0010306
:10128C00DBB2002B02D06FF00103B0E07B680833B7
:10129C001846FFF71DFF78627B6810331846FFF77E
:1012AC0017FF38627B6818331846FFF711FFF86197
:1012BC00FA69FB6C9A4202DD4FF0FF3397E07B68D2
:1012CC002033FB637B6A20337A681344BB637A6AEE
:1012DC003B6A134420337A6813447B6300233B63DB
:1012EC000023FB627DE0F86BFFF7F2FE03463B61E7
:1012FC00FB6B08331846FFF7EBFE03467B61FB6B79
:10130C0010331846FFF7E4FE0346BB61FB6B183342
:10131C00FB633A69FB6A1344FA699A4202DA6FF08A
:10132C00020364E0FB6ABA6C13443A69B96B184661
:10133C0000F0A2FA3B691A46BB6B1344BB63002353
:10134C00BB6224E03A6BBB6A1344002B1CDB3A6B88
:10135C00BB6A1344BA689A4216DDFA6ABB6A134434
:10136C001A46BB6C134419783A6BBB6A13441A4681
:10137C00FB6813441A78F86ABB6A03441846BB6CC2
:10138C0003440A44D2B21A70BB6A0133BB623B6994
:10139C00BA6A9A42D6DB3B69FA6A1344FB623B6930
:1013AC003A6B13443B637A69FB6A1344FA699A42B9
:1013BC0002DA6FF002031AE0FB6ABA6C13447A6922
:1013CC00796B184600F058FA7B691A467B6B13440C
:1013DC007B637B69FA6A1344FB62BB693A6B134407
:1013EC003B63FA6AFB699A42FFF67DAF002318460D
:1013FC004037BD4680BD80B487B000AF786039609F
:10140C0000237B6100233B613B685A1C3A601B78CC
:10141C00FB607B69DA01FB6803F07F0313437B619C
:10142C003B6901333B61FB6803F08003002BEBD17C
:10143C007B687A691A603B6918461C37BD4680BCCC
:10144C00704780B58AB000AFF860B9607A607B688D
:10145C00002B02D14FF0FF3362E0FB681B78FB7668
:10146C0001233B620023FB613B6A5A1C3A62FA6817
:10147C0013441B78BB76BA7EFB7E9A4244D1FA6841
:10148C003B6A13441B78002B0AD1FB695A1CFA6186
:10149C00BA681344FA7E1A703B6A01333B623AE035
:1014AC00FA683B6A1A4407F1140311461846FFF711
:1014BC00A2FF03461A463B6A13443B62FA683B6A36
:1014CC001A4407F1100311461846FFF794FF034620
:1014DC001A463B6A13443B6200237B620FE03B6974
:1014EC00FA69D31ABA681A44B968FB690B441278C2
:1014FC001A70FB690133FB617B6A01337B627B6988
:10150C007A6A9A42EBD306E0FB695A1CFA61BA6814
:10151C001344BA7E1A703A6A7B689A42A4D3FB6968
:10152C0018462837BD4680BD80B588B000AFFFF7A0
:10153C00D1FCFFF78CFC1420FFF798FC0020FFF780
:10154C0041FD0220FFF73EFD3920FFF73BFDFEF782
:10155C00F7FD08220B211848FFF738FC0B220C2151
:10156C001548FFF733FC07F1180300221A609A8024
:10157C0007F1180319461148FFF76AF80F48FFF7EF
:10158C00EFF800237B610123FB600023BB6040F27A
:10159C0023133B6040F223137B6001233B613B46EA
:1015AC0019460648FFF782FA012202210348FFF789
:1015BC005DFAFEF7D9FDFEE700080140006400402B
:1015CC0080B400AFFEE780B483B000AF0023FB71A2
:1015DC00FB79002BFCD000BF00BF0C37BD4680BC94
:1015EC00704780B483B000AF0023FB71FB79002BF4
:1015FC00FCD000BF00BF0C37BD4680BC704780B428
:10160C0000AFFEE780B400AFFEE780B400AF00BFD0
:10161C00BD4680BC704780B400AF00BFBD4680BCE7
:10162C00704780B400AF00BFBD4680BC704700005F
:10163C0080B400AF044B1B680133034A136000BF36
:10164C00BD4680BC704700BFC000002080B400AF16
:10165C0000BFBD4680BC704780B400AF00BFBD4624
:10166C0080BC704780B400AF00BFBD4680BC7047E3
:10167C0080B400AF00BFBD4680BC704780B400AFE3
:10168C0000BFBD4680BC704780B500AF094B1B68DE
:10169C0003F00203002B02D0074B1B689847054B45
:1016AC005B68044A43F0020353600B20FFF7F8FB1E
:1016BC0000BF80BD00000240A400002080B500AF38
:1016CC00094B1B6803F02003002B02D0074B5B680F
:1016DC009847054B5B68044A43F0200353600C2089
:1016EC00FFF7DEFB00BF80BD00000240A40000201D
:1016FC0080B500AF094B1B6803F40073002B02D0BC
:10170C00074B9B689847054B5B68044A43F400738E
:10171C0053600D20FFF7C4FB00BF80BD00000240EA
:10172C00A400002080B500AF094B1B6803F40053E4
:10173C00002B02D0074BDB689847054B5B68044ACB
:10174C0043F4005353600E20FFF7AAFB00BF80BD8B
:10175C0000000240A400002080B500AF094B1B68BC
:10176C0003F40033002B02D0074B1B699847054B41
:10177C005B68044A43F4003353600F20FFF790FB7F
:10178C0000BF80BD00000240A400002080B500AF67
:10179C00094B1B6803F40013002B02D0074B5B6949
:1017AC009847054B5B68044A43F4001353601020C0
:1017BC00FFF776FB00BF80BD00000240A4000020B4
:1017CC0080B500AF094B1B6803F00073002B02D0EF
:1017DC00074B9B699847054B5B68044A43F00073C1
:1017EC0053601120FFF75CFB00BF80BD000002407E
:1017FC00A40000200A480B490B4A002302E0D458ED
:10180C00C4500433C4188C42F9D3084A084C002342
:10181C0001E013600432A242FBD3FFF785FE704750
:10182C000000002064000020DC1A00086400002086
:10183C00D8000020FEE70000024B0146186800F0BB
:10184C0091B800BF00000020024B0146186800F060
:10185C0021B800BF0000002010B5013902449042AD
:10186C0001D1002005E0037811F8014FA34201D00B
:10187C00181B10BD0130F2E70A44914200F1FF330E
:10188C0000D1704710B511F8014B914203F8014F8C
:10189C00F9D110BD38B50546002940D051F8043CAB
:1018AC000C1F002BB8BFE41800F0E0F81C4A1368BA
:1018BC0033B9636014602846BDE8384000F0DCB8EA
:1018CC00A34208D9206821188B4201BF19685B68B4
:1018DC0009182160EDE71A465B680BB1A342FAD9EF
:1018EC0011685018A0420BD1206801445018834253
:1018FC001160E0D118685B68014411605360DAE74D
:10190C0002D90C232B60D6E7206821188B4201BF2B
:10191C0019685B680918216063605460CBE738BDB7
:10192C00C400002070B50E4E0C463168054611B946
:10193C0000F08CF830602146284600F087F8431CF4
:10194C000AD0C41C24F00304A04207D0211A284654
:10195C0000F07CF8013001D14FF0FF34204670BD0F
:10196C00C80000202DE9F041CD1C25F003050835F9
:10197C000C2D38BF0C25002D074601DBA94205D9DB
:10198C000C2300263B603046BDE8F0812E4E00F063
:10199C006DF833681C4634BB29463846FFF7C2FF46
:1019AC00431C04464DD134682646002E40D1236892
:1019BC003146384604EB030800F048F880453AD12C
:1019CC00216803356D1A25F0030508350C2D38BF39
:1019DC000C2538462946FFF7A5FF01302BD023688C
:1019EC002B4423600EE02268521B1ED40B2A16D9FE
:1019FC006119A342256018BF5960636808BF316044
:101A0C0062514B60384604F10B0600F035F826F0B5
:101A1C000706231DF21AB6D09B1BA350B3E76268CE
:101A2C00A3420CBF32605A60ECE723466468B2E70D
:101A3C0034467668B9E70C2338463B6000F01CF856
:101A4C00A1E72560DEE700BFC400002038B5002305
:101A5C00054D044608462B6000F016F8431C02D1D5
:101A6C002B6803B1236038BDCC000020014800F086
:101A7C0009B800BFD0000020014800F004B800BF36
:101A8C00D000002070477047044A0346116809B91A
:101A9C00034911601068034413607047D4000020A0
:101AAC00D8000020F8B500BFF8BC08BC9E467047B3
:0C1ABC00F8B500BFF8BC08BC9E4670479F
:0C1AC8004D4253444946343300000000F6
:041AD40031010008D4
:041AD8000D010008F4
:101ADC0004000020000000000000000000000000D6
:101AEC0000000000000000000000000000000000EA
:101AFC0000000000000000000000000000000000DA
:101B0C0000000000000000000000000000000000C9
:101B1C0000000000000000000000000000000000B9
:101B2C0000000000000000000000000000000000A9
:041B3C0000000000A5
:0400000508001801D6
:00000001FF
